:020000040800F2
:10000000A8BF00203903000879730008F1520008E6
:100010007573000863190008618100080000000082
:10002000000000000000000000000000790200084D
:10003000A927000800000000D5020008D97A0008AE
:100040005303000853030008530300085303000838
:100050005303000853030008AB27000853030008AC
:1000600053030008B5270008BF2700085303000802
:100070005303000853030008530300085303000808
:1000800053030008530300085303000853030008F8
:10009000691900085303000853030008C927000822
:1000A00053030008530300085303000853030008D8
:1000B00053030008530300085303000853030008C8
:1000C00053030008530300085303000853030008B8
:1000D000530300085303000853030008318000084D
:1000E0005303000853030008530300085303000898
:1000F0005303000853030008530300085303000888
:100100005303000853030008530300085303000877
:100110005303000853030008530300085303000867
:100120005303000853030008530300085303000857
:100130005303000853030008530300085303000847
:1001400079190008530300085303000853030008FB
:100150005303000853030008530300085303000827
:100160005303000853030008530300085303000817
:100170005303000853030008530300080000000065
:10018000530300085303000800F002F800F064F87D
:100190000AA090E8000C82448344AAF10107DA45E2
:1001A00001D100F059F8AFF2090EBAE80F0013F0D0
:1001B000010F18BFFB1A43F0010318476CE500005C
:1001C0008CE5000010F8013B0A4413F0030408BF5B
:1001D00010F8014B1D1108BF10F8015B641E05D01B
:1001E00010F8016B641E01F8016BF9D1002D15D0D8
:1001F00010F8014B03F00C030C2BA1EB04040ABF15
:1002000010F8013BA4EB8314A4EB032405F10103D4
:1002100014F8016B5B1E01F8016BF9D5914238BFF0
:1002200010F8013BD1D3704700230024002500269D
:10023000103A28BF78C1FBD8520728BF30C148BF49
:100240000B6070471FB50DF02FFC9DE8030000F018
:1002500063FF1FBD10B510BD01F008F81146FFF790
:10026000F1FF0AF0E3FB01F026F803B4FFF7F2FF19
:1002700003BC01F05DF800002C4B19680868B0E879
:10028000F04F80F30988BFF36F8F4FF0000080F3C9
:10029000118870470000000008480068006880F37B
:1002A00008884FF0000080F3148862B661B6BFF38F
:1002B0004F8FBFF36F8F00DF00BF00BF08ED00E07E
:1002C000DFF80C00016841F470010160704700BF65
:1002D00088ED00E0EFF30980BFF36F8F134B1A68CE
:1002E0001EF0100F08BF20ED108A20E9F04F1060BB
:1002F00009B44FF0500080F31188BFF34F8FBFF364
:100300006F8F0BF0BDFD4FF0000080F3118809BC2A
:1003100019680868B0E8F04F1EF0100F08BFB0EC85
:10032000108A80F30988BFF36F8F7047AC030020F9
:10033000EFF30580704700000948804709480047EF
:10034000FEE7FEE7FEE7FEE7FEE7FEE7FEE7FEE785
:10035000FEE7FEE704480549054A064B70470000E2
:10036000A17B000889010008A87F0020A8BF002009
:10037000A89F0020A89F00209FED1A1AF5EE000A02
:1003800040EE010ABDEEE00AF5EEC00A10EE100ADA
:10039000F1EE10FA38BF401E00EE100A1349F7EED6
:1003A000001AB8EEC00A30EEC00ADFED0F0A20EEE8
:1003B000200AFCEEC00A10EE900AC0F3080000EE1E
:1003C000900A01EB8000F8EE600A90ED011A70EEE1
:1003D000600A90ED000A71EEE01A21EE800A00EE4C
:1003E000810A704783F9223E00000044E0DE0008E5
:1003F000DFED190AB5EEC00A60EE200ABDEEE01A84
:1004000011EE100AF1EE10FA38BF401E00EE100A8D
:100410001349F7EE001AB8EEC00A30EEC00ADFED5D
:100420000F0A60EE200ABCEEE00A10EE100AC0F3DC
:10043000080000EE100A01EB8000B8EE400A90EDD3
:10044000011A70EEC00A90ED000A71EEE01A21EE7A
:10045000800A00EE810A704783F9223E00000044C2
:10046000E0DE000870B405880E884468D1F804C046
:100470005368B54208D140884988884201BF118835
:100480008D425188884203D070BC6FF002007047E3
:1004900005FB00F1880827D094ED001ADCED000A76
:1004A00094ED010ADCED011A31EE201AD4ED020AB6
:1004B00070EE211A9CED020A83ED001AC3ED011AB9
:1004C00094ED031ADCED031A30EE800A401E71EE43
:1004D000210A83ED020A04F11004C3ED030A03F1BB
:1004E00010030CF1100CD7D111F0030030D0B0F193
:1004F000004F30D200282BDD211F1B1FACF104025E
:1005000010F0010F0AD091ED010AD2ED010A091D88
:10051000121D30EE200A83ED010A1B1D400817D082
:1005200091ED010AD2ED010A401E30EE200A83ED62
:10053000010A91ED020AD2ED020A01F1080102F16D
:10054000080230EE200A83ED020A03F10803E7D126
:1005500070BC00207047B4EC010A401EFCEC010A9C
:1005600030EE200AA3EC010AF5D1F1E701804280C8
:10057000436070472DE9F34F84B0049840680090C1
:10058000486801900498B0F800E04588DFEDFE0A65
:1005900000200290B0EE600AAE4506D10888498876
:1005A000884204BF7146864504D06FF0020006B051
:1005B000BDE8F08F01985FEA010C18BFB7EE001A92
:1005C0003DD000BFBEEB0C0117D0B1F1004F80F061
:1005D0001F82002911DD021F11F0010F1CBFC2EDA7
:1005E000010A121D4B1006D0C2ED010AC2ED020A2B
:1005F00008325B1EF8D100EB8100BCF10102A0ECD7
:10060000011A19D0B2F1004F80F00882002A13DDE0
:10061000031F12F0010F1CBFC3ED010A1B1D511077
:1006200008D000BFC3ED010AC3ED020A491E03F161
:100630000803F7D100EB8200BCF1010CC2D14FF0EE
:1006400000080395002D14BFB0EE602A002000F0D2
:10065000BF8100BF009908FB05F001EB800B0199F9
:10066000DBED002A01EB80000346F0EE421AC6459E
:1006700052D9AEEB0802ABEB850112F0010F17D097
:1006800001EB850191ED000AB5EEC00AF1EE10FA1A
:1006900007DDB4EEE10AF1EE10FA09DDF0EE401AE2
:1006A00006E0B1EE400AF4EEC01AF1EE10FAF5D30E
:1006B000521031D001EB850C9CED000AB5EEC00A5A
:1006C000F1EE10FA05DDB4EEE10AF1EE10FA09DD03
:1006D00006E0B1EE400AF4EEC01AF1EE10FA01D2D3
:1006E000F0EE401A01EBC50191ED000AB5EEC00A2B
:1006F000F1EE10FA05DDB4EEE10AF1EE10FA09DDD3
:1007000006E0B1EE400AF4EEC01AF1EE10FA01D2A2
:10071000F0EE401A521ECDD1F5EEC01AF1EE10FAED
:1007200000F07381F5EEC02A0126F1EE10FA00996F
:10073000D4BFB1EE620AB0EE620AB4EE610AF1EE25
:1007400010FA1CBFAEEB0802B2F1010C47D005FB5A
:1007500008F201EB820292ED001A00BFB0EE410AEE
:1007600005FB06F4B5EEC00A00EB8404F1EE10FAC6
:10077000CCBFF0EE400AF1EE400AF4EE610AF1EE71
:1007800010FA28D1B5EB080C11D0BCF1004F7DD286
:10079000BCF1000F0BDD00BF92ED000AD1ED000AA5
:1007A000BCF1010CE2EC010AA1EC010AF4D1290030
:1007B0000ED0B1F1004F6AD2002909DD94ED000A94
:1007C000D0ED000A491EE4EC010AA0EC010AF5D1C3
:1007D000012002900BE0761CBCF1010CBED1029806
:1007E000012804D0F5EEC02AF1EE10FA7ED09BED80
:1007F000000AB5EB08009A465946064622D0B0F1E9
:10080000004F74D200281DDD091F10F0010F06D023
:10081000F0EE400A80EEA01A81ED011A091D401089
:1008200010D000BFD1ED010A401E80EE801A81ED8C
:10083000011A91ED021AC1EE000AC1ED020A01F19E
:100840000801EFD1280026D0B0F1004F7ED2002859
:1008500021DDAAF1040110F0010F06D0D1ED010A4B
:1008600080EE801A81ED011A091D401013D000BFDF
:10087000D1ED010A401E80EE801A81ED011AD1ED02
:10088000020A80EE801A81ED021A01E0CBE0D6E088
:1008900001F10801ECD1DDE900124FF000095FEA37
:1008A0000E0773D0C14504BF01EB860102EB850240
:1008B00074D091ED000ADC465046330035D01C461A
:1008C000B6F1004F7ED2002C2FDD0B1FABF1040CD4
:1008D00016F0010F0FD0F0EE400ADCED011AB0EE79
:1008E000601A00EEE11A83ED011A01E08DE0B1E03B
:1008F0001B1D0CF1040C741015D000BFD3ED010AC0
:100900009CED011A40EE410AC3ED010AD3ED020A43
:100910009CED021A0CF1080C40EE410AC3ED020AEC
:100920000833641EEAD101EB86012B0036D0B3F107
:10093000004F72D2002B31DDA2F1040CAAF10400A9
:1009400013F0010F0CD0DCED010A00E08BE090ED1C
:10095000011A001D40EE410ACCED010A0CF1040C15
:100960005C1019D0DCED010A90ED011A40EE410A4D
:10097000CCED010ADCED020A90ED021A083040EEDF
:10098000410ACCED020A03E0000000000DE005E0A2
:10099000641E0CF1080CE5D102EB830201EB880127
:1009A0007F1E09F101097FF47DAF009808F101086D
:1009B000001D00900398401E03907FF44BAE0299F7
:1009C000012900E058E004BF06B0BDE8F08F00BF89
:1009D000B5EEC00AF1EE10FA7FF4E9AD04990EFB12
:1009E00005F3002B4A684FF000010BD902EB810C94
:1009F0009CED000AB5EEC00AF1EE10FA02D1491CD6
:100A00008B42F3D88B427FF4D2AD6FF00400CEE579
:100A1000E0EC010A491EFBD1EFE538E0E0EC010A09
:100A2000521EFBD108E692ED000AD1ED000ABCF19E
:100A3000010CE2EC010AA1EC010AF4D1B7E694ED55
:100A4000000AD0ED000A491EE4EC010AA0EC010AFC
:100A5000F5D1BDE6D1ED000A401E80EE801AA1EC72
:100A6000011AF7D1EEE6D3ED000A401E80EE801A9F
:100A7000A3EC011AF7D10EE7BCEC011AD1ED000A84
:100A80005B1E40EE410AE1EC010AF5D14DE7B0EC06
:100A9000011AD2ED000A5B1E40EE410AE2EC010AA7
:100AA000F5D17BE72DE9F04F82B04668536801939A
:100AB000058847884B88002000900888874201BF3E
:100AC000B2F800C06545528893421EBF6FF0020025
:100AD00002B0BDE8F08F9FED412A4FEA970EC7F3B1
:100AE000400B00BFDDE9000202EB800A4A6898462D
:100AF0004FF00009B0EE420AB4465FEA0E0025D07E
:100B000092ED001ADCED001A02EB8302DCED010A23
:100B100001EE810A92ED001A02EB8302401ED2ED33
:100B2000001A02EB830200EE810A9CED021ADCED52
:100B3000030A00040CF1100C000C01EE210A92EDE6
:100B4000001A02EB830200EE810AD9D117F00300EC
:100B500026D0ACF10404A2EB830210F0010F08D000
:100B600002EB8302D4ED010A92ED001A241D00EE7F
:100B7000810A5FEA0B0013D002EB830CD4ED010A6B
:100B80009CED001A02EBC302401E00EE810AD4ED78
:100B9000020A92ED001A04F1080400EE810AEBD17A
:100BA00009F10100AAEC010A1FFA80F9486800EB7C
:100BB0008902A8F101001FFA80F8B8F1000F99D15D
:100BC000009806EB8706184480B20090681E050462
:100BD0002D0C87D102B00020BDE8F08F000000008E
:100BE00070B405880E884468D1F804C05368B542D3
:100BF00008D140884988884201BF11888D425188B8
:100C0000884203D070BC6FF00200704705FB00F112
:100C1000880827D094ED001ADCED000A94ED010A53
:100C2000DCED011A31EE601AD4ED020A70EE611AA1
:100C30009CED020A83ED001AC3ED011A94ED031A2C
:100C4000DCED031A30EEC00A401E71EE610A83ED3E
:100C5000020A04F11004C3ED030A03F110030CF1BE
:100C6000100CD7D111F0030030D0B0F1004F30D2CA
:100C700000282BDD211F1B1FACF1040210F0010F17
:100C80000AD091ED010AD2ED010A091D121D30EEC4
:100C9000600A83ED010A1B1D400817D091ED010A7F
:100CA000D2ED010A401E30EE600A83ED010A91ED9B
:100CB000020AD2ED020A01F1080102F1080230EE47
:100CC000600A83ED020A03F10803E7D170BC00203B
:100CD0007047B4EC010A401EFCEC010A30EE600AD9
:100CE000A3EC010AF5D1F1E72DE9F04F028847683E
:100CF000B0F802804888D1F8049082B04FF0000A22
:100D00001646824207BF098888456FF0020002B08C
:100D100018BFBDE8F08F4FEA980B02EB420001903C
:100D2000C8F34000CDF8000009EB8A01BBF1000FC9
:100D300033D0019801EB820C01EB80043B46E64680
:100D400001EBC2054FEA0B0093ED000A401E81ED56
:100D5000000A93ED010A01EB02118CED000A93EDFC
:100D6000020A0CEB021C85ED000A93ED030A05EB69
:100D7000021584ED000A04EB021403F11003E3D121
:100D80000EEB820000EB820000EB8201ABF1010070
:100D9000504307EB0B1701EB001118F0030C21D0A7
:100DA0003B1FA1EB82011CF0010F06D093ED010A5D
:100DB00001EB82011B1D81ED000A009880B100BF8C
:100DC00093ED010A01EB820401EBC20184ED000AFC
:100DD00093ED020A401E81ED000A03F10803EFD1F2
:100DE00007EB8C070AF101001FFA80FA701E060457
:100DF000360C99D102B00020BDE8F08F70B50646E0
:100E000000F06EF9056806F10B0020F00704B4420B
:100E10009CBF002070BD2B466A68BAB11068A04222
:100E200010D304F1080188423CBF5068586007D3D2
:100E30005168101941601168091B01605860146005
:100E4000101D70BD13465268002AE7D1214628467E
:100E500000F04EF90028DED170BD53EA020C00F01C
:100E600069802DE9F04B4FF00006002B1FBFB3FA4D
:100E700083F503FA05F424FA05F65E4012BF164323
:100E8000B2FA82F502FA05F4C5F120051EBF22FA76
:100E900005FC44EA0C04203556EA044C4FEA14449D
:100EA00018BF641C4FF000084FF00009904271EB2E
:100EB000030C39D3002919BFB1FA81F701FA07F6FB
:100EC000B0FA80F700FA07F6C7F120071EBF20FA34
:100ED00007FC46EA0C062037B6FBF4FCA7EB050737
:100EE000103F07F01F0BCBF120060CFA0BFB2CFA7E
:100EF00006F644BFB3460026202FA4BF5E464FF03F
:100F0000000B5BEA060C08BF4FF0010B19EB0B0955
:100F1000ABFB027C48EB0608C01B06FB02CC0BFBBC
:100F200003CC71EB0C01C1E70B4602464146484633
:100F3000BDE8F08B13B54FF000004FF00001AFF3A8
:100F40000080BDE81C407047032A40F2308010F05A
:100F5000030C00F0158011F8013BBCF1020F624454
:100F600098BF11F801CB00F8013B38BF11F8013BE5
:100F7000A2F1040298BF00F801CB38BF00F8013B92
:100F800011F0030300F02580083AC0F0088051F802
:100F9000043B083A51F804CBA0E80810F5E7121D0D
:100FA0005CBF51F8043B40F8043BAFF30080D2072C
:100FB00024BF11F8013B11F801CB48BF11F8012BF8
:100FC00024BF00F8013B00F801CB48BF00F8012B1B
:100FD000704710B5203AC0F00B80B1E81850203AA5
:100FE000A0E81850B1E81850A0E81850BFF4F5AFC9
:100FF0005FEA027C24BFB1E81850A0E8185044BF53
:1010000018C918C0BDE810405FEA827C24BF51F8BF
:10101000043B40F8043B08BF7047D20728BF31F8B3
:10102000023B48BF11F8012B28BF20F8023B48BF04
:1010300000F8012B704702F0FF0343EA032242EA63
:10104000024200F002B84FF000020429C0F0128002
:1010500010F0030C00F01B80CCF1040CBCF1020F6B
:1010600018BF00F8012BA8BF20F8022BA1EB0C0140
:1010700000F00DB85FEAC17C24BF00F8012B00F836
:10108000012B48BF00F8012B70474FF0000200B55C
:10109000134694469646203922BFA0E80C50A0E89B
:1010A0000C50B1F12001BFF4F7AF090728BFA0E849
:1010B0000C5048BF0CC05DF804EB890028BF40F815
:1010C000042B08BF704748BF20F8022B11F0804F57
:1010D00018BF00F8012B7047704770477047000039
:1010E00000487047507F0020704770477047704736
:1010F00038B504460A4600206946AFF30080002850
:1011000008BF38BD02460099204600F075F801205E
:1011100038BD012000F0A2B8F8B5AFF30080054655
:1011200000200C46102000BF0646A819A0420DD989
:10113000324669460020AFF30080070008BF00F088
:101140008DF80098A04218BF0546C419FFF7C8FFE4
:1011500005600746F01D20F007004619284600F0FC
:101160000AF8B44208BFF8BDA21B31463868BDE892
:10117000F84000F041B800210160C0E9011070475B
:101180001020704770B50446051FFFF7A9FF0068DF
:10119000002C14BF446870BD002C18BFAC423CBF8B
:1011A00020466468F8D301680A18AA4218BF45604F
:1011B00003D12A6805461144016028684119A142FB
:1011C0001CBF6C6070BD616869602168084428605C
:1011D00070BD10B500F00CF8006810BD10B50446E5
:1011E00000F006F8046010BD00487047487F0020FA
:1011F00000487047487F0020034640688C4600281E
:1012000018BF88423CBF03464068F8D318681844AA
:10121000884207D00CF1030020F00700001D411A9E
:10122000521A0146081D0A60FFF7ACBF1FB584B013
:1012300000200A9C06AB04AA02A90094AFF3008028
:1012400018B1DDE9020108B010BD0348204000F0EC
:1012500040F800200146F6E70000207C10B500F0C1
:101260003FF8BDE8104000F02FB870477546FFF713
:10127000BBFFAE4605006946534620F00700854691
:1012800018B020B5FFF766F8BDE820404FF0000623
:101290004FF000074FF000084FF0000B21F007015E
:1012A000AC46ACE8C009ACE8C009ACE8C009ACE8A1
:1012B000C0098D46704710B50446AFF30080204644
:1012C000BDE81040FEF7D1BF002801D000F030B8D3
:1012D000704710B500F04CF8BDE81040FFF7F4BFC0
:1012E00010B5012805D0002103A000F027F8012047
:1012F00010BD09A1F8E7000053494752544D454D30
:101300003A204F7574206F662068656170206D65A6
:101310006D6F7279000000003A2048656170206DA1
:10132000656D6F727920636F727275707465640099
:1013300001491820ABBEFEE72600020070B5054645
:101340000C460A2000E06D1C00F068F835B12878E2
:101350000028F8D102E0641C00F060F814B1207895
:101360000028F8D1BDE870400A2000F057B800000E
:1013700010B5022803D0410103D50DA112E00020D1
:1013800010BD010101D50FA10CE0C10001D511A1D3
:1013900008E0810001D512A104E0400001D513A1AD
:1013A00000E0002115A0FFF7C9FF012010BD0000DB
:1013B000496E76616C6964204F7065726174696F03
:1013C0006E000000446976696465204279205A65A0
:1013D000726F00004F766572666C6F7700000000D8
:1013E000556E646572666C6F77000000496E6578B3
:1013F00061637420526573756C74000053494746ED
:1014000050453A2041726974686D6574696320655E
:101410007863657074696F6E3A20000008B569469C
:101420008DF800000320ABBE08BD000010B50122FE
:101430001021024802F0BEF910BD00000000024079
:1014400010B500221021024802F0B4F910BD0000CE
:101450000000024010B501221146024802F0AAF92C
:1014600010BD00000004024010B500220121024816
:1014700002F0A0F910BD00000004024010B50446BF
:10148000FFF7DEFF922000F0A3F906229549122013
:1014900000F07EF9FFF7CAFF92484078000200B2E0
:1014A000904909780843904908800846B0F900003F
:1014B00000EE100AB8EEC00A8C48D0ED000A20EE0B
:1014C000200AD4ED080A20EE200A84ED000A85489F
:1014D000C078000200B283498978084382490880B5
:1014E0000846B0F9000000EE100AB8EEC00A7F48C6
:1014F000D0ED000A20EE200AD4ED080A20EE200AE2
:1015000084ED010A77484079000200B275490979F3
:101510000843754908800846B0F9000000EE100A3B
:10152000B8EEC00A7148D0ED000A20EE200AD4EDD2
:10153000080A20EE200A84ED020AFFF795FF082230
:101540006849002000F024F9FFF784FF654800781F
:101550000F284FD166480078F0B36248C078000287
:1015600000B26049897808435F49088094ED090A10
:101570000846B0F9000000EE900AF8EEE00A5D4877
:1015800090ED001A10EE810A84ED030A5548407967
:10159000000200B25349097908435349088094ED89
:1015A0000A0A0846B0F9000000EE900AF8EEE00AD8
:1015B000504890ED001A10EE810A84ED040A494863
:1015C000C079000200B2474989790843464908803A
:1015D00094ED0B0A084600E00DE0B0F9000000EEC3
:1015E000900AF8EEE00A434890ED001A10EE810AE6
:1015F00084ED050A44E03B48C078000200B2394956
:1016000089780843384908800846B0F9000000EEA0
:10161000100AB8EEC00A3748D0ED000A20EE200AC2
:1016200084ED030A2F484079000200B22D49097960
:1016300008432D4908800846B0F9000000EE100A62
:10164000B8EEC00A2B48D0ED000A20EE200A84ED47
:10165000040A2448C079000200B22249897908436B
:10166000214908800846B0F9000000EE100AB8EEE3
:10167000C00A2048D0ED000A20EE200A84ED050AB9
:10168000FFF7DEFEA22000F0A3F802221549222077
:1016900000F07EF8FFF7CAFE12480078C00011493A
:1016A000497840EA6110104908800846B0F9000006
:1016B000B0F5806F05DB08460088A0F5006000B239
:1016C00008800948B0F9000000EE100AF8EEC00AE0
:1016D000B4EE001AB3EE070A00EE810A84ED070AA1
:1016E00010BD00008A020020920200204C0200205F
:1016F0005C0200205002002070B504460D461C48D4
:10170000046000201B49087007F0FAFC19490978A9
:1017100008431849087007F0A9FD164909780843DD
:10172000144908701DB1144800F066F91CE09FEDE3
:10173000130A114880ED090A9FED110A80ED0A0A8B
:101740009FED0F0A80ED0B0A9FED0E0A80ED0C0A4B
:1017500090ED0C0ADFED0C0A80EE801A80ED081A7D
:101760009FED0A0A80ED060A0248007870BD00006D
:10177000940200205602002048180020AC38223B7A
:10178000B016CE393F161B41C3F51C410000204264
:1017900070B506460C46154646F0800000F018F875
:1017A00006E0552000F014F82070641C681EC5B2D5
:1017B000002DF6D170BD70B504460D4644F0800092
:1017C00000F006F8552000F003F8287070BD000006
:1017D00001B582B04FF47A70012301AA02A90090EA
:1017E0000348006802F0A4FF9DF804000EBD00004D
:1017F0009402002070B505460C462846FFF7E8FF26
:101800002046FFF7E5FF70BDD2ED020A92ED021A05
:10181000B6EE000A00EEC10AD2ED030A92ED031AF9
:1018200000EEC10AD0ED000A20EE200AD2ED010A36
:1018300092ED021A60EE810A92ED001AD2ED031ABF
:1018400041EE610A90ED011A00EE810AD2ED010A23
:1018500092ED031A60EE810A92ED001AD2ED021A9F
:1018600041EE210A90ED021A00EE810AF0EE000A24
:1018700020EE200A81ED000A92ED010AD2ED020A63
:1018800020EE200AD2ED000A92ED031A00EE810A42
:10189000D0ED000A60EE200A92ED011AD2ED011A95
:1018A000B6EE000A01EE610AD2ED031A92ED032AA8
:1018B000B0EE401A01EEC21AD0ED011AB0EE600A85
:1018C00001EE210AD2ED020A92ED031A60EE810ABE
:1018D00092ED001AD2ED011A41EE610A90ED021A62
:1018E00000EE810AF0EE000A20EE200A81ED010AE6
:1018F00092ED010AD2ED030A20EE200AD2ED000A91
:1019000092ED021A00EEC10AD0ED000A20EE200A84
:10191000D2ED020A92ED031A60EE810A92ED001AEE
:10192000D2ED011A41EE210A90ED011A00EE810A72
:1019300092ED011AD2ED011AF6EE000A41EE610AAB
:1019400092ED021AD2ED021A41EE610A90ED021AEE
:1019500000EE810AF0EE000A20EE200A81ED020A74
:10196000704700BFFEE7000010B5024801F0B9F96A
:1019700010BD0000D00A002010B5024801F0B1F9F6
:1019800010BD0000F80A002038B504464FF400707E
:101990000849086000208860C86008200861200AA3
:1019A000054908704C706B460A460249034800F02E
:1019B000D0FF38BDD80F002080000020D00A0020C2
:1019C00038B5044640F2FF100849086000208860DE
:1019D000C86008200861200A054908704C706B46F1
:1019E0000A460249034800F0B4FF38BDC00F00208A
:1019F00078000020F80A002070B52DED048B88B027
:101A0000044600200690079000F008FEFE4880ED96
:101A1000000A00BF00F002FEFB48D0ED000A30EEE5
:101A2000600AF2EE040AB4EEE00AF1EE10FA14DDF8
:101A30009FEDF60A84ED090A9FEDF50A84ED0A0A86
:101A40009FEDF30A84ED0B0A9FEDF20A84ED0C0A78
:101A50009FEDF10A84ED060A55E29FEDF00A00F0D1
:101A600099FD9FEDEF0A84ED0C0A9FEDED0A84EDE0
:101A7000090A9FEDEB0A84ED0A0A9FEDE90A84ED5D
:101A80000B0A002673E1FFF7DBFC9220FFF7A0FEB4
:101A9000062206A91220FFF77BFEFFF7C7FC9DF880
:101AA0001900000200B29DF8181040EA010500EE8E
:101AB000105AB8EEC00ADB48D0ED000A20EE200A2A
:101AC00084ED000A9DF81B00000200B29DF81A1078
:101AD00040EA010500EE105AB8EEC00AD148D0ED38
:101AE000000A20EE200A84ED010A9DF81D00000284
:101AF00000B29DF81C1040EA010500EE105AB8EE45
:101B0000C00AC848D0ED000A20EE200A84ED020A7F
:101B1000D4ED000A60EEA00A94ED011AD4ED011A8A
:101B200041EE210A94ED021AD4ED021A41EE210A87
:101B3000B0EE600A07F0B1FAB0EE408A94ED0C0AFC
:101B400030EE080A84ED0C0AFFF78EFC082206A985
:101B50000020FFF71DFEFFF77DFC9DF818000F2801
:101B600050D19DF81B00000200B29DF81A1040EA07
:101B7000010500EE105AB8EEC00AAB48D0ED000ADD
:101B800020EE200A84ED030A94ED090AD4ED030A3D
:101B900030EE200A84ED090A9DF81D00000200B213
:101BA0009DF81C1040EA010500EE105AB8EEC00A7C
:101BB0009D48D0ED000A20EE200A84ED040A94ED41
:101BC0000A0AD4ED040A30EE200A84ED0A0A9DF8D0
:101BD0001F00000200B29DF81E1040EA010500EE51
:101BE000105AB8EEC00A9048D0ED000A20EE200A44
:101BF00084ED050A94ED0B0AD4ED050A30EE200AB7
:101C000084ED0B0A06BBF0EE488AB0EE489A00203D
:101C100017E004F10C0101EB800191ED000A03A92A
:101C200001EB800181ED000A04F10C0101EB800160
:101C300091ED000A694601EB800181ED000A411C2B
:101C4000C8B20328E5DB49E0B4EEE88AF1EE10FA09
:101C500001DDF0EE488AB4EEC98AF1EE10FA01D245
:101C6000B0EE489A002037E004F10C0101EB80014E
:101C700091ED000A03A901EB8001D1ED000AB4EE59
:101C8000E00AF1EE10FA0ADD04F10C0101EB80012B
:101C900091ED000A03A901EB800181ED000A04F136
:101CA0000C0101EB800191ED000A694601EB800116
:101CB000D1ED000AB4EEE00AF1EE10FA0AD204F116
:101CC0000C0101EB800191ED000A694601EB8001F6
:101CD00081ED000A411CC8B20328C5DB38EEC90AF1
:101CE000524880ED000A002012E003A901EB8001B8
:101CF00091ED000A694601EB8001D1ED000A30EE5A
:101D0000600A4B4901EB800181ED000A411CC8B219
:101D10000328EADB454890ED000AF6EE000AB4EE2F
:101D2000E00AF1EE10FA1BDC414890ED000ADFED0D
:101D3000410AB4EEE00AF1EE10FA11DC90ED010A6E
:101D4000DFED3C0AB4EEE00AF1EE10FA08DC90EDAB
:101D5000020ADFED380AB4EEE00AF1EE10FA00DD17
:101D60000AE09FED350A00F015FC701C86B233487E
:101D700000888642FFF687AE00BFD4ED0C0A2F48DC
:101D8000008800EE100AB8EE400A80EE801A84ED5A
:101D90000C1A002015E004F1240101EB8001D1EDC3
:101DA000000A2649098800EE101AB8EE400A80EEB3
:101DB000801A04F1240101EB800181ED001A411C1D
:101DC000C8B20328E7DBFFF73BFBA220FFF700FDCB
:101DD000022206A92220FFF7DBFCFFF727FB9DF874
:101DE0001800C0009DF8191040EA6115B5F5806F24
:101DF00002DBA5F5006005B200EE105AF8EEC00A4D
:101E0000B4EE001A1CE0000084020020AC38223B33
:101E1000B016CE393F161B41000020420AD7A33B23
:101E2000000000004C020020500200205802002058
:101E30003C1800209A99193E6F12033A880200203C
:101E4000B3EE070A00EE810A84ED060A34480088E2
:101E5000401C00B232490880324890ED000AF6EE8C
:101E6000000AB4EEE00AF1EE10FA3FF7D3AD94EDBC
:101E70000C0ADFED2D0A30EE600AB0EEC00AF6EE75
:101E8000000AB4EEE00AF1EE10FAEEDC274890ED1D
:101E9000000A5FED180AB4EEE00AF1EE10FAE4DC95
:101EA00090ED010A5FED1D0AB4EEE00AF1EE10FAC2
:101EB000DBDC90ED020A5FED210AB4EEE00AF1EE00
:101EC00010FAD2DC94ED090AB0EEC00ADFED180A70
:101ED000B4EEE00AF1EE10FAC7DC94ED0A0AB0EEB7
:101EE000C00ADFED130AB4EEE00AF1EE10FABCDC32
:101EF00094ED0B0AB0EEC00ADFED0D0AB4EEE00A75
:101F0000F1EE10FAB1DC00BF94ED0C0ADFED090A26
:101F100080EE801A84ED081A08B0BDEC048B70BD09
:101F20005E02002058020020CDCC1C413C1800204D
:101F30000AD7233CC3F51C4100BF00F047F8FCE77B
:101F40002DE9F04104460D4616460022062104F113
:101F5000700008F0B9FB0022082104F1A80008F085
:101F6000B3FB284606F0B6FDDFED140A9FED140A18
:101F7000144A0021304605F087FB00270AE0B4F838
:101F8000A820AC20015B104808F070FA012008F08E
:101F9000EBFE7F1C0A2FF2DB00270AE0B4F870206A
:101FA0007420015B084808F061FA012008F0DCFEAB
:101FB0007F1C0A2FF2DBBDE8F0810000000000006A
:101FC0000000B442FCDD0008F80A002008B502E079
:101FD000012008F0C9FE494890F890000028F7D089
:101FE000474A48494848FFF7ABFF85E0434A45491F
:101FF000454807F02FFD4248444B404A4149009074
:10200000414807F049FA404890F85401012844D16A
:102010003C4890ED1E0AB0EE402AF6EE001A9FED05
:102020003C1ADFED3B0A9FED3A0A0821394808F0D7
:1020300039FD3948006808F097FE324890ED1D0AD6
:10204000B0EE402AF6EE001A9FED311ADFED300AAD
:102050009FED2F0A06212F4808F024FD2E48006826
:1020600008F082FE284890ED620ADFED2C0A80EE2F
:10207000201ABDEEC10A10EE100A01B22248A0F8E3
:1020800080110146B1F88011494208B2FFF798FC6F
:102090002148006808F068FE2EE01B4890F85401C3
:1020A00050BB9FED1B2ADFED1A1A9FED191ADFEDC9
:1020B000180A9FED170A0821164808F0F3FC164885
:1020C000006808F051FE9FED122ADFED111A9FED16
:1020D000101ADFED0F0A9FED0E0A06210D4808F0D9
:1020E000E1FC0D48006808F03FFE0020FFF768FCA7
:1020F0000948006808F038FE78E700009C180020C6
:10210000B0160020001600201C130020B001002093
:1021100000000000F80A0020E40100200200C0399D
:1021200000BF00F045F8FCE72DE9F04104460D46FC
:10213000164608F0DFF9C4F85C01002206212046AB
:1021400008F0C2FA0022082104F1380008F0BCFAB5
:10215000284606F0BFFCDFED120A9FED120A124A74
:102160000021304605F090FA002708E0228FA18F69
:102170000E4808F07BF9012008F0F6FD7F1C0A2FBD
:10218000F4DB002708E02288A188084808F06EF9EF
:10219000012008F0E9FD7F1C0A2FF4DBBDE8F08187
:1021A000000000000000B442CCDD0008D00A00208E
:1021B0002DED028B82B09FEDA70AA74880ED440A5F
:1021C0009FEDA60A80ED3D0A9FEDA40A80ED3B0A33
:1021D0009FEDA20A80ED3A0A00209F4981F858013C
:1021E0009FED9F0A084680ED3E0A02E0012008F0BC
:1021F000BBFD9C4890F890000028F7D09A4A9B4974
:102200009548FFF791FF9A4A9A499B4805F06CFA66
:102210001FE19A4890ED000AB8EE400ADFED980AF7
:1022200080EE201AB0EE418A8B48D0F85C01807AAB
:10223000032803D10120884981F854018648D0F849
:102240005C01807A022803D10020834981F854017F
:10225000814890F85401012874D17F48D0F85C017E
:10226000B0F9020000EE100AB8EEC00ADFED850AF0
:1022700020EE200A784880ED3C0A9FED830A00F1A9
:10228000E801F03009F045FB7348D0ED3A0A7B488D
:1022900090ED000AB8EE400A20EE800AF0EE000A47
:1022A00060EE200A9FED761A80EE810A6A48D0ED32
:1022B0003B0A30EE200A80ED3B0A90ED3D0AD0F853
:1022C0005C01B0F9040000EE900AF8EEE00A9FED20
:1022D0006F1A00EE810A604880ED3D0A90ED440AD5
:1022E000D0F85C01B0F9060000EE900AF8EEE00AC2
:1022F0009FED671A00EE810A574880ED440A90ED81
:10230000450AD0ED440A30EE600AB0EEC00ADFEDB7
:10231000610AB4EEE00AF1EE10FA06DD012053493D
:1023200081F8AD005C4981F8AD004B4890ED440A5E
:1023300080ED450ADFED590A9FED590A00F58870D6
:1023400008F030FC474A4949434807F007FF464830
:10235000544B444A454900903F4807F0CBFB3E4868
:1023600090F85401012844D1404890ED1E0AB0EE87
:10237000402AF6EE001A9FED391ADFED380A9FED7C
:10238000370A0821484808F08DFB3C48006808F0EF
:10239000EBFC364890ED1D0AB0EE402AF6EE001A2E
:1023A0009FED2E1ADFED2D0A9FED2C0A06213E48E7
:1023B00008F078FB3148006808F0D6FC264890ED1C
:1023C0005C0ADFED3A0A80EE201ABDEEC10A10EE7B
:1023D000100A01B22048A0F868110146B1F868114E
:1023E000494208B2FFF7D0FA2448006808F0BCFC64
:1023F0002EE0194890F8540150BB9FED182ADFEDEC
:10240000171A9FED161ADFED150A9FED140A082121
:10241000254808F047FB1948006808F0A5FC9FED27
:102420000F2ADFED0E1A9FED0D1ADFED0C0A9FED5E
:102430000B0A06211C4808F035FB1048006808F01C
:1024400093FC0020FFF7A0FA0C48006808F08CFC11
:1024500000BFDEE6B81E053E1C1300200000000091
:102460000AD7A3BC9C180020B01400206C120020D6
:1024700040150020F8140020881500209C01002041
:1024800000007A440AD7A33B6F12833B82A8FBB7B4
:10249000ACC5A7366F12033A001600200AD7A33E38
:1024A0004A0C023E98000020D00A00200200C039E9
:1024B00001680A4BCAB2103AA3FB02321209084B58
:1024C0009B5CC365032A04D96FF30901091D81656B
:1024D00002E06FF309018165806D7047ABAAAAAA7B
:1024E000D8DE0008014600208A6A8B69002B0FD0D5
:1024F000B3F5005F1DD08AB3012A30D0022A2ED056
:10250000032A04D1C96A11F0807F00D001207047EE
:102510001AB1012A07D0022AF9D1C96A11F0807FC5
:10252000F5D001207047C96AB1F1C07FFAD101200E
:1025300070475AB1012A0BD0022A07D0032AF7D1DB
:10254000C96AB1F1C07FF3D1012070470120704703
:10255000C96A11F0807FFAD001207047FFE701209F
:102560007047000008B50848406800900749009887
:102570000968884204D206480068401C0449086083
:1025800002490098086008BD001000E050000020DB
:102590004C0000200C494868F0EE400A00BF0A4990
:1025A0004968091A01EE101AF8EE411A074991ED2F
:1025B000001AB8EE411A20EE811AF4EEC11AF1EEBB
:1025C00010FAECD370470000001000E0400000203B
:1025D00010B52DED028B82B004460E484068019084
:1025E00020680199081A00EE100AF8EE400A0A481D
:1025F00090ED000AB8EE400A80EE801AB0EE418AF3
:1026000001982060FFF7AEFFB0EE480A02B0BDECC3
:10261000028B10BD001000E04000002010B52DED31
:10262000028B00F059F80F4890ED000AB8EE400A0E
:10263000808800EE900AF8EE600A9FED0B1A00EE1B
:10264000810A0848C08800EE900AF8EE600A9FED03
:10265000071A00EE810AB0EE408AB0EE480ABDECDF
:10266000028B10BD380000206F12833ABD378635CB
:102670001249096841F08071104A11600021104A26
:1026800051601146096841F0010111600D49414353
:102690000D4A1160114609684FF47A72B1FBF2F1EC
:1026A0000A4A116008490968064AB1FBF2F1084A72
:1026B00011600021074A116070470000FCED00E046
:1026C000001000E040420F004000002044000020C5
:1026D000480000204C00002038B529484068009090
:1026E000FFF740FF274800684FF0FF31A0FB0131A2
:1026F0000098181841F10001234A03C2234800231F
:102700002149026803C9FEF7A8FB214A03C22048F9
:102710000CC81E4800680024A2FB001503FB0050F3
:1027200002FB04021848D0E90030591A60EB02009D
:10273000184AC2E90010164800681749086017488F
:1027400000231449026803C9FEF787FB12498880F9
:10275000084680881149096841430E48D0E9003095
:10276000591A60F100000E4AC2E900100D4800231A
:102770000B49026803C9FEF770FB0749C88038BDE2
:10278000001000E04C000020580000204000002015
:102790006000002068000020380000204400002075
:1027A0007000002048000020704710B5012000F0A4
:1027B000DFFE10BD10B5082000F0DAFE10BD10B528
:1027C000102000F0D5FE10BD10B5202000F0D0FE86
:1027D00010BDD2ED020A92ED021AB6EE000A00EE2A
:1027E000C10AD2ED030A92ED031A00EEC10AD0ED40
:1027F000000A20EE200AD2ED010A92ED021A60EEE4
:10280000810A92ED001AD2ED031A41EE210A90EDF1
:10281000011A00EE810AD2ED010A92ED031A60EE70
:10282000810A92ED001AD2ED021A41EE610A90ED92
:10283000021A00EE810AF0EE000A20EE200A81ED75
:10284000000A92ED010AD2ED020A20EE200AD2ED32
:10285000000A92ED031A00EEC10AD0ED000A60EE04
:10286000200A92ED011AD2ED011AB6EE000A01EE2D
:10287000610AD2ED031A92ED032AB0EE401A01EE7E
:10288000C21AD0ED011AB0EE600A01EE210AD2EDB3
:10289000020A92ED031A60EE810A92ED001AD2ED5F
:1028A000011A41EE210A90ED021A00EE810AF0EEC3
:1028B000000A20EE200A81ED010A92ED010AD2ED14
:1028C000030A20EE200AD2ED000A92ED021A00EE71
:1028D000810AD0ED000A20EE200AD2ED020A92ED24
:1028E000031A60EE810A92ED001AD2ED011A41EE50
:1028F000610A90ED011A00EE810A92ED011AD2ED03
:10290000011AF6EE000A41EE610A92ED021AD2EDCA
:10291000021A41EE610A90ED021A00EE810AF0EE11
:10292000000A20EE200A81ED020A7047704790F8F5
:102930002020012A07D0022A05D0416A41F48021D3
:1029400041620120704700684269114341610020E3
:10295000704770B490F82040D0F800C0DCF808C090
:10296000012C08D0022C06D0416A41F4802141623A
:1029700070BC012070470CF080640CF000652C43A3
:1029800002D11CF0805F55D0CCF3016C012404FA15
:102990000CF41C608B684FF4C0749BB1CD6804EBE1
:1029A0000C162B434D6843EAC5030568AB514FF441
:1029B000C273066803EB0C130D69F550097D0129FC
:1029C00009D00DE00D88CB6804EB0C1643EA4553A3
:1029D0000568AB51EBE70168CD5845F48075CD50E3
:1029E0001179D379557941EA036193791B0443EA5C
:1029F000052319434FF4C675036805EB0C155951AF
:102A00001178D37841EA0361937852781B0443EA42
:102A1000022211434FF4C473026803EB0C13D1502C
:102A2000016804EB0C100A5842F001020A5070BC15
:102A300000207047416A41F40011416270BC0120DE
:102A40007047000090F82020012A07D0022A05D004
:102A5000416A41F480214162012070474248D0F828
:102A6000002242F00102C0F80022D0F8002222F435
:102A70007C52C0F80022D0F800224B6A42EA0322BE
:102A8000C0F800220A7D012302F01F0203FA02F2BD
:102A9000D0F81C329343C0F81C32CB69D3B9D0F8BC
:102AA0000C329343C0F80C32B1F80CC04B686CF395
:102AB0001F43D1F814C000EBCC0CCCF84032B1F875
:102AC00008C00B686CF31F43D1F814C000EBCC0CAA
:102AD000CCF84432CB69012B1AD1D0F80C32134315
:102AE000C0F80C32B1F800C04B686CF31F43D1F84A
:102AF00014C000EBCC0CCCF84032B1F808C0CB6865
:102B00006CF31F43D1F814C000EBCC0CCCF844326A
:102B10008B697BB1D0F804321343C0F804320B69DF
:102B200073B1D0F814321343C0F81432096A012982
:102B30000CD010E0D0F804329343C0F80432EEE732
:102B4000D0F814329343C0F81432EFE7D0F81C12D7
:102B50001143C0F81C12D0F8001221F00101C0F896
:102B6000001200207047000000640040704730B43D
:102B700090F820C0BCF1010F09D0BCF1020F06D0C3
:102B8000416A41F48021416230BC0120704739B173
:102B9000D0F800C0DCF810C01CF0030F33D006E002
:102BA000D0F800C0DCF80CC01CF0030F24D04FF4A8
:102BB000D87C04680CEB011C54F80C4004F00404AD
:102BC00094603CB3046854F80C40E4085460046812
:102BD00054F80CC00CF0020CC2F80CC04FF4DA7CB4
:102BE00004680CEB011C54F80C5005F00F05082D7F
:102BF00016D30824146118E0416A41F400114162BF
:102C000030BC01207047416A41F40011416230BC80
:102C100001207047046854F80C40640D1460D6E736
:102C200054F80C4004F00F041461046854F80C408C
:102C3000C4F307249461046854F80CC04FEA1C4C98
:102C4000C2F814C04FF4DC72D0F800C002EB0112DD
:102C50005CF802C083F800C0D0F800C05CF802C085
:102C60004FEA1C2C83F801C0D0F800C05CF802C009
:102C70004FEA1C4C83F802C0D0F800C05CF8022078
:102C8000120EDA704FF4DE72D0F800C002EB0112BF
:102C90005CF802C083F804C0D0F800C05CF802C041
:102CA0004FEA1C2C83F805C0D0F800C05CF802C0C5
:102CB0004FEA1C4C83F806C0D0F800C05CF8022034
:102CC000120EDA7139B10068016941F02001016129
:102CD00030BC002070470068C16841F02001C1602D
:102CE000F6E72DE9F05F0546002428684669D0F82C
:102CF00004908768D0F80CA0D0F810B0D0F81880F5
:102D000016F0010F54D017F0010F17D00121816088
:102D100017F0020F03D0284600F098FB0EE017F0E2
:102D2000040F02D04FF4006408E017F0080F02D03F
:102D30004FF4805402E0284600F087FB17F4807FB0
:102D400019D029684FF48070886017F4007F03D091
:102D5000284600F07DFB0EE017F4806F02D044F4AB
:102D6000005408E017F4006F02D044F4804402E0FD
:102D7000284600F06CFB17F4803F19D029684FF407
:102D80008030886017F4003F03D0284600F062FBD3
:102D90000EE017F4802F02D044F4004408E017F44A
:102DA000002F02D044F4803402E0284600F051FBAA
:102DB00016F0080F07D01AF0100F04D044F4007476
:102DC00029681020C86016F0040F4FF0080707D0DC
:102DD0001AF0080F04D02868C760284600F000FAEF
:102DE00016F0020F07D02868C06810F0030F02D059
:102DF000284600F0F7F916F0400F07D01BF0100F2F
:102E000004D044F4806429681020086116F0200F73
:102E100007D01BF0080F04D028680761284600F08F
:102E2000DFFA16F0100F07D02868006910F0030FC2
:102E300002D0284600F0D5FA16F4003F08D019F069
:102E4000100F05D0296810204860284600F0CAFA03
:102E500016F4803F07D019F0080F04D028684760A7
:102E6000284600F0F8FA16F4004F4AD019F0040F83
:102E700044D016F4807F04D018F0010F01D044F044
:102E8000010416F4007F04D018F0020F01D044F0C2
:102E9000020416F4806F04D018F0040F01D044F03F
:102EA000040416F4006F29D018F0700F26D008F033
:102EB0007000402815D006DC102809D020280AD040
:102EC000302816D10AE050280ED0602811D10EE02B
:102ED00044F008040DE044F010040AE044F020043B
:102EE00007E044F0400404E044F0800401E044F4CE
:102EF00080742868816921F070018161296804204B
:102F00004860002C05D0686A204368622846FFF7B5
:102F10002DFEBDE8F09F70B50446002C03D094F858
:102F2000200010B104E0012070BD204600F0A8F898
:102F30002068016841F00101016000F043FC054692
:102F4000206840684FF0050610F0010F11D100F025
:102F500039FC401B0A2807D9606A40F400306062DF
:102F600084F82060012070BD2068406810F0010FD7
:102F7000EDD02068016821F00201016000F022FC20
:102F800005462068406810F0020F11D000F01AFCCE
:102F9000401B0A2807D9606A40F40030606284F858
:102FA0002060012070BD2068406810F0020FEDD154
:102FB000207E01283FD02068016821F08001016057
:102FC000607E01283DD02068016821F04001016049
:102FD000A07E01283BD02068016821F0200101601B
:102FE000E07E012839D02068016841F010010160BD
:102FF000207F012837D02068016821F00801016096
:10300000607F012835D02068016821F0040101604B
:10301000E168A06862690843216911430843616857
:10302000491E08432168C86100206062012084F8BD
:103030002000002070BD2068016841F0800101601F
:10304000BEE72068016841F040010160C0E72068E8
:10305000016841F020010160C2E72068016821F0A9
:1030600010010160C4E72068016841F008010160B7
:10307000C6E72068016841F004010160C8E700006C
:1030800010B586B00446142101A8FDF7FEFF4E4995
:103090002068884241D14D480068401C4B49086077
:1030A0000846006801280FD100BF00200090484862
:1030B000006840F00070464908600846006800F06B
:1030C0000070009000BF00BF00BF0020009040488B
:1030D0001038006840F008003D4910390860084683
:1030E000006800F00800009000BF00BF03200190BE
:1030F00002200290002003900320049009200590F4
:1031000001A9344800F040FA00220621142000F002
:1031100015FD142000F004FD54E02F49206888427A
:1031200050D100BF002000902948006840F0806026
:10313000274908600846006800F08060009000BFE2
:1031400000BF22480068401C20490860084600680B
:1031500001280FD100BF002000901D48006840F0FA
:1031600000701B4908600846006800F0007000907D
:1031700000BF00BF00BF0020009015481038006855
:1031800040F002001249103908600846006800F05B
:103190000200009000BF00BF60200190022002905A
:1031A00000200390032004900920059001A90B48FA
:1031B00000F0EAF900220621402000F0BFFC402088
:1031C00000F0AEFC06B010BD0064004024000020FA
:1031D00040380240000C02400068004000040240F9
:1031E0007047000010B58AB0044601AB03AA002165
:1031F0002046FFF7BCFC7448844277D140F202229B
:103200000398811A90421CD008DC03280BD00428B4
:103210000FD0A0F20120002866D111E0012911D0C1
:10322000022961D10FE0082201A9684807F0D2F80D
:103230005BE0082201A96548383007F0CBF854E07C
:1032400000BF00BF00BF0398401E614908700846D8
:10325000007800EB40015F4830F8310001B25C4873
:10326000007800EB40025B4800EBC20001819DF852
:1032700005009DF8041040EA01215548007800EB54
:103280004002544820F832109DF807009DF80610BF
:1032900040EA012001B24E48007800EB40024D4860
:1032A00000EBC20041809DF809009DF8081040EA3B
:1032B000012001B24648007800EB4002454800EB8F
:1032C000C20081809DF80A104148007800EB40025E
:1032D000404800EBC20081713D490978491CC8B2E1
:1032E00006F0E6FF01E001E000BF00BF3A4884427B
:1032F00068D10398032806D004280BD0A0F205203B
:1033000000285DD10DE0082201A93048703007F097
:1033100061F856E0082201A92C48A83007F05AF8B5
:103320004FE001202D4908700846007800EB40016D
:10333000284830F8310001B22848007800EB4002FC
:10334000244800EBC20001819DF805009DF804109F
:1033500040EA01212148007800EB40021D4820F896
:1033600032109DF807009DF8061040EA012001B2D6
:103370001A48007800EB4002164800EBC20041807A
:103380009DF809009DF8081040EA012001B2134899
:10339000007800EB40020F4800EBC20081809DF8EE
:1033A0000A100E48007800EB40020A4800EBC20009
:1033B00081710A490978491CC8B206F079FF00BF3B
:1033C00000BF00BF0AB010BDD00A00201C130020AF
:1033D0008800002080140020F80A002089000020C6
:1033E00070477047704770B5044694F82000012874
:1033F00005D0606A40F400206062012070BD0220A8
:1034000084F820002068016821F00101016000F0CB
:10341000D9F905462068406810F0010F12D000F07D
:10342000D1F9401B0A2808D9606A40F40030606274
:10343000052084F82000012070BD2068406810F04D
:10344000010FECD10020606270BD7047704770477B
:1034500070477047704770472DE9F041044600F00F
:10346000B1F90546DCB1022084F83500002684F865
:1034700034602068016821F0010101602068006863
:1034800010F0010F13D000F09DF9401B052809D959
:1034900020206065032084F83500BDE8F08101201C
:1034A000BDE8F0812068006810F0010FEBD12168C1
:1034B0000868234A1040A3686268D4F810C01A4311
:1034C000E36843EA0C031A4363691A43A3691A4386
:1034D000E3691A43236A1A431043626A042A03D138
:1034E000236BE26A1A43104308602068406920F0A9
:1034F0000701606A40EA0105012704280ED1A06A8D
:103500000543E06A50B12046FEF7ECFF30B14020A1
:10351000606584F835700120BDE8F0812068456160
:103520002046FEF7C5FF94F85C103F2202FA01F135
:103530008160666584F835700020BDE8F081000088
:103540003F8010F070B5044600F03CF90546B4F138
:10355000FF3F02D004480078044400F033F9401BD8
:10356000A042FAD370BD0000A00300207047000005
:1035700010B504490A68024202D00860FFF7F6FF5E
:1035800010BD0000143C01402DE9F84F0022DFF887
:1035900018A2DFF810924FF0010E03274FF00F082A
:1035A000AAF1040B0EFA02FC0B6803EA0C03634554
:1035B0007DD10C7904F00304012C01D0022C14D12C
:1035C0008568540007FA04F6B543CE6806FA04F499
:1035D0002C438460446824EA0C0C0C79C4F3001476
:1035E000944044EA0C0CC0F804C0D1F804C037EA97
:1035F0000C0C0CD0C4684FEA420C07FA0CF5AC4333
:103600008D6805FA0CFC4CEA040CC0F80CC091F86B
:1036100004C00CF0030CBCF1020F12D14FEAD20C23
:1036200000EB8C04256A4FEA427C4FEADC6C08FA16
:103630000CF6B5430E6906FA0CFC4CEA050CC4F80E
:1036400020C004684FEA420C07FA0CF5AC430D7930
:1036500005F0030505FA0CFC4CEA040CC0F800C0A8
:10366000D1F804C01CF4403F7DD0D9F800C04CF420
:10367000804CC9F800C0D9F800C00CF4804CCDF8DB
:1036800000C022F0030C0CF1804505F59835D5F803
:1036900008C89407240F08FA04F62CEA0606A0F1DD
:1036A000804CBCF5003C64D0A0F1804C00E05AE0B6
:1036B000BCF5013C60D0A0F1804CBCF5023C5ED072
:1036C000A0F1804CBCF5033C5CD0A0F1804CBCF573
:1036D000043C5AD0A0F1804CBCF5053C58D0A0F178
:1036E000804CBCF5063C56D0A0F1804CBCF5073CA4
:1036F00054D04FF0080C0CFA04FC4CEA060CC5F848
:1037000008C8DAF800C02CEA030C4C6814F4801FD7
:1037100001D04CEA030CCAF800C0244CD4F800C015
:103720002CEA030C4D6815F4001F01D04CEA030C81
:10373000C4F800C0DBF800C02CEA030C4C6814F499
:10374000003F01D04CEA030CCBF800C0184CD4F871
:1037500000C02CEA030C4D6815F4803F01D04CEA00
:10376000030CC4F800C0521C102AFFF41BAFBDE8C4
:10377000F88F4FF0000CBEE74FF0010CBBE74FF0A5
:10378000020CB8E74FF0030CB5E74FF0040CB2E7BA
:103790004FF0050CAFE74FF0060CACE74FF0070C0D
:1037A000A9E7000044380240083C01400C3C0140BD
:1037B000003C0140002A01D0816170470904816109
:1037C000704700000148806870470000A003002097
:1037D00070B50446002C04D094F83D00002510B1CB
:1037E00006E0012070BD84F83C50204600F0C6F889
:1037F000242084F83D002068016821F00101016067
:103800002068016841F4004101602068016821F4EA
:103810000041016000F05AFB544B6168994203D8A3
:103820005349884203D304E05249884201D201201F
:1038300070BD5149B0FBF1F12268D2F804C02CF000
:103840003F0C4CEA010CC2F804C062689A4201D8ED
:103850004A1C07E04FF4967251434FF47A72B1FB61
:10386000F2F14A1C2168D1F820C02CF03F0C42EA4A
:103870000C020A626168994210D84900401EB0FBF0
:10388000F1F2521CC2F30B02042A01D2042026E0FA
:10389000B0FBF1F0401CC0F30B0020E0A268002A4E
:1038A00050D001EBC10303EB0113A0F1010CBCFBF1
:1038B000F3F35B1C43F480431B051B0D4AD0002A25
:1038C0004AD001EBC10202EB0111401EB0FBF1F046
:1038D000401CC0F30B0040F4804040F400402168DD
:1038E000CA6922F0FF0222F44F421043C861216AE4
:1038F000E06901432068026822F0C00211430160C0
:10390000E168206901432068826822F0FF0222F406
:10391000034211438160A169606901432068C26864
:1039200022F0FF021143C1602068016841F00101EB
:1039300001602564202084F83D00256384F83E5012
:10394000002070BD01EB4103A0F1010CBCFBF3F3BF
:103950005B1CB1E70120C2E701EB4101401EB0FB57
:10396000F1F0401CC0F30B00B7E70000A086010097
:1039700080841E0000093D0040420F0010B586B053
:103980000446142101A8FDF780FB2A4920688842DB
:103990004DD100BF002000902748006840F004008F
:1039A000254908600846006800F00400009000BF48
:1039B00000BF00BF002000900846006840F00100F2
:1039C00008600846006800F00100009000BF00BFDA
:1039D00048150190122002900120039003200490CA
:1039E0000420059001A91548FFF7CEFD4FF4807023
:1039F00001901220029001200390032004900420E3
:103A0000059001A90E48FFF7BFFD00BF0020009000
:103A100009481030006840F4000007491031086080
:103A20000846006800F40000009000BF00BF06B028
:103A300010BD0000005C0040303802400008024029
:103A4000000002400248816802781144816070479A
:103A5000A003002010B50B48016841F4007101601B
:103A6000016841F480610160016841F48071016086
:103A7000032000F097F80F2000F006F800F026F879
:103A8000002010BD003C024070B504460D4D4FF4BF
:103A90007A712878B1FBF0F00B490968B1FBF0F0BE
:103AA00000F052FF08B1012070BD102C07D2002297
:103AB0002146501E00F042F86C60002070BD0120CD
:103AC00070BD0000A00300202800002008B500BF42
:103AD000002000901148006840F480400F490860C1
:103AE0000846006800F48040009000BF00BF00BF9F
:103AF00000200090081F006840F08050091F0860F7
:103B00000846006800F08050009000BF00BF00220F
:103B10000F21901E00F012F808BD0000443802404A
:103B200000280ADB00F01F01012202FA01F140091E
:103B3000800000F1E020C0F80011704710B4184B6D
:103B40001B68C3F30223C3F1070CBCF1040F01D9B6
:103B50004FF0040C1C1D072C01D2002300E0DB1EDB
:103B6000012404FA0CFCACF1010C0CEA01019940AF
:103B700004FA03F35B1E1A401143002806DB00F130
:103B8000E020090180F8001410BC704700F00F001D
:103B900000F1E020090180F8141D10BC70470000FE
:103BA0000CED00E000F00700064A11684FF6FF0335
:103BB000194041EA002040F0FD7040F08060106044
:103BC000704700000CED00E02DE9F84304464FF08B
:103BD000010820784FF0000710F0050F33D0DFF810
:103BE0004491C9F86870FFF7EDFD06464E4D286810
:103BF00010F0006F0BD0FFF7E5FD801B022802D903
:103C00000320BDE8F883286810F0006FF3D16068E6
:103C1000217A800140EA017044490860C9F868804F
:103C2000FFF7D0FD0646286810F0006F0BD1FFF7B4
:103C3000C9FD801B022802D90320BDE8F88328684B
:103C400010F0006FF3D0207810F0020F5CD03848ED
:103C5000016841F080510160006800F080500090E0
:103C6000344D286840F480702860FFF7ABFD0646AD
:103C7000286810F4807F0BD1FFF7A4FD801B022879
:103C800002D90320BDE8F883286810F4807FF3D0C0
:103C9000294D286800F4407028B3A18901F44071CF
:103CA000814220D0286820F440702449C1F8008067
:103CB0000F602860286810F0010F14D0FFF782FD14
:103CC0000646286810F0020F0DD141F28837FFF741
:103CD00079FD801BB84202D90320BDE8F88328682B
:103CE00010F0020FF3D0E0684FF4407131EA0002A7
:103CF00013490CD0086820F4F81008602868A189DE
:103D0000C1F30B01084328600020BDE8F8830A686E
:103D100020F4407022F4F81220F070401043086044
:103D2000ECE70000000047420038024084380240BF
:103D3000403802400070004070380240400E474258
:103D4000083802402DE9F04704460D46002C13D0F8
:103D5000DFF85491D9F80000EFB200F00700A84254
:103D60000DD289F80070D9F8000000F00700A842D1
:103D700005D00120BDE8F0870120BDE8F08720686C
:103D80004A4E10F0020F14D010F0040F03D0306828
:103D900040F4E0503060207810F0080F03D0306815
:103DA00040F4604030603068A16820F0F0000843C3
:103DB0003060207810F0010F3ED060683C49012847
:103DC00008D002280DD003280BD0096811F0020F8B
:103DD00028D00AE0096811F4003F06D10120BDE8AF
:103DE000F087096811F0007F19D0316821F00301D4
:103DF00008433060FFF7E6FC80463068616800F0F9
:103E00000C00B0EB810F17D041F2883AFFF7DAFCD3
:103E1000A0EB0800504508D90320BDE8F087012039
:103E2000BDE8F0870120BDE8F0873068616800F0E8
:103E30000C00B0EB810FE9D1D9F8000000F00700C9
:103E4000A8420AD989F80070D9F8000000F00700EC
:103E5000A84202D00120BDE8F087207810F0040FBE
:103E600005D03068E16820F4E050084330602078E5
:103E700010F0080F06D03068216920F4604040EA55
:103E8000C100306000F042F831680A4AC1F3031102
:103E9000515CC8400849086008480068FFF7F4FD15
:103EA0000020BDE8F0870000003C024008380240D6
:103EB00000380240B4DD000828000020A4030020E0
:103EC00001480068704700002800002000B5FFF797
:103ED000F7FF04490968044AC1F38221515CC840D4
:103EE00000BD000008380240C4DD000800B5FFF73F
:103EF000E7FF04490968044AC1F34231515CC840F4
:103F000000BD000008380240C4DD000810B51748A5
:103F1000006810F00C01164816D0164B042912D078
:103F2000082911D1144C216801F03F02216811F4D5
:103F3000800F0AD02068C0F38810A0FB0301002383
:103F4000FCF78BFF09E0184610BD21680023C1F380
:103F50008811A1FB0001FCF780FF2168C1F301413A
:103F6000491C4900B0FBF1F010BD000008380240C8
:103F70000024F400001BB700043802402DE9F84F7C
:103F80000446002C12D02078FB4E10F0010FA6F151
:103F9000040563D0301D016801F00C0104290CD028
:103FA000006800F00C00082803D010E00120BDE8F4
:103FB000F88F306810F4800F09D0286810F4003FA3
:103FC0004CD06068002849D10120BDE8F88F6068B6
:103FD000B0F5803F14D0B0F5A02F16D0286820F49B
:103FE00080302860286820F480202860606810B342
:103FF000FFF7E8FB0746286810F4003F0ED02DE0DD
:10400000286840F480302860F0E7286840F4802079
:104010002860286840F480302860E7E7FFF7D2FB8B
:10402000C01B642802D90320BDE8F88F286810F46B
:10403000003FF3D012E0FFF7C5FB0746286810F4F5
:10404000003F0BD0FFF7BEFBC01B642802D9032042
:10405000BDE8F88F286810F4003FF3D12078C74FEF
:1040600010F0020F4FF0000957D0C548016811F059
:104070000C0F14D0006800F00C00082803D1306841
:1040800010F4800F0BD0E06880B301203860FFF798
:1040900099FB8046286810F0020F12D01EE02868B5
:1040A00010F0020F05D0E068012802D00120BDE821
:1040B000F88F2868216920F0F80040EAC1002860E4
:1040C0002BE0FFF77FFBA0EB0800022802D90320BA
:1040D000BDE8F88F286810F0020FF2D02868216937
:1040E00020F0F80040EAC100286016E0FFE7C7F8BA
:1040F0000090FFF767FB8046286810F0020F0CD095
:10410000FFF760FBA0EB0800022802D90320BDE8FE
:10411000F88F286810F0020FF2D1207810F0080F05
:1041200035D09848DFF860A26169C1B10121016012
:10413000FFF748FB8046DAF8000010F0020F26D1A6
:10414000FFF740FBA0EB0800022802D90320BDE8DE
:10415000F88FDAF8000010F0020FF1D017E0C0F885
:104160000090FFF72FFB8046DAF8000010F0020FF6
:104170000DD0FFF727FBA0EB0800022802D903208F
:10418000BDE8F88FDAF8000010F0020FF1D12078C6
:1041900010F0040F71D04FF000087C48006810F058
:1041A000805F0AD17948016841F080510160006860
:1041B00000F0805000904FF00108DFF8D4B1DBF838
:1041C000000010F4807F1BD1DBF8000040F4807009
:1041D000CBF80000FFF7F6FA8246DBF8000010F497
:1041E000807F0DD1FFF7EEFAA0EB0A00022802D97A
:1041F0000320BDE8F88FDBF8000010F4807FF1D0D9
:10420000A068DFF890B1012818D005281DD0DBF890
:10421000000020F00100CBF80000DBF8000020F0E7
:104220000400CBF80000A06840B3FFF7CBFA824649
:10423000DBF8000010F0020F14D03EE0DBF80000C5
:1042400040F00100CBF80000EDE7DBF8000040F0A3
:104250000400CBF80000DBF8000040F00100CBF8D0
:104260000000E0E7FFF7AEFAA0EB0A0141F2883068
:10427000814204D90320BDE8F88F26E005E0DBF891
:10428000000010F0020FEDD017E0FFF79BFA824616
:10429000DBF8000010F0020F0FD0FFF793FAA0EB4D
:1042A0000A0141F28830814202D90320BDE8F88F2B
:1042B000DBF8000010F0020FEFD1B8F1010F04D1CC
:1042C0003248016821F080510160A069F0B32C49A7
:1042D00009684FF0FF3801F00C01082966D0022868
:1042E00010D0C7F86090FFF76DFA0446286810F008
:1042F000007F2BD0FFF766FA001B022851D903205C
:10430000BDE8F88FC7F86090FFF75CFA814628682F
:1043100010F0007F0CD0FFF755FAA0EB090002283F
:1043200002D90320BDE8F88F286810F0007FF2D191
:10433000216AE069A26A0843616A08EB52028901B6
:1043400041EA0241084394F82C1000E055E040EAAD
:104350000160306001203866FFF734FA04462868AF
:1043600010F0007F49D1FFF72DFA001B022813D966
:104370000320BDE8F88F00000438024000004742E7
:1043800008380240800E47427438024040380240EC
:104390000070004070380240286810F0007FE2D0C2
:1043A0002BE0286810F0007FA4D126E0012822D05D
:1043B0003068E26900F4800191421AD1226A00F06B
:1043C0003F01914215D147F6C071626A0140B1EBDD
:1043D000821F0ED1A26A00F4403108EB5202B1EB09
:1043E000024F06D194F82C1000F07060B0EB016F12
:1043F00003D00120BDE70120BBE70020B9E710B5DD
:104400000446002C02D0607F10B106E0012010BDF0
:1044100000202077204600F041F8022060772068D5
:10442000C16811F0100F05D000200028EFD1012144
:10443000617710BDCA21416221685320486220463D
:1044400003F0CAF9D8B92068816821F0400121F44D
:10445000E0018160206881686268636911432269B4
:104460001A43114381602168E0680861206801698E
:10447000228941EA02410161204603F0D1F948B99D
:1044800021680A6C22F480220A6421680A6CA369FC
:104490001A430A642268FF215162C6E71FB5044629
:1044A0000020009001900290039009492068884202
:1044B0000CD102200090074803906846FFF784FB68
:1044C00008B1FEF733FA0120034908601FBD000060
:1044D0000028004000031E003C0E474270B5044611
:1044E0000C482168C860FFF76DF905462068C06870
:1044F00010F0200F0CD1FFF765F9401BB0F57A7F63
:1045000001D9032070BD2068C06810F0200FF2D0E0
:10451000002070BD5F7F010070B50446002C09D0FB
:10452000606A002540B125616561A56294F851007B
:1045300040B10CE0012070BD6068B0F5827FF4D01E
:10454000E561F2E784F85050204600F045F802207B
:1045500084F851002068016821F040010160A088C2
:10456000218900F4827001F404410843A18901F417
:1045700000610843217C01F002010843217D01F024
:1045800001010843218B01F400710843217F01F0F0
:104590003801084394F8201001F080010843218D70
:1045A00001F40051084321680860A169042000EA71
:1045B000114094F8241001F010010143206841607B
:1045C0002068C16921F40061C1616565012084F83A
:1045D0005100002070BD000010B586B004461421C3
:1045E00001A8FCF752FD4B49206888427ED100BFEC
:1045F000002000904848006840F480504649086018
:104600000846006800F48050009000BF00BF00BF63
:104610000020009040481438006840F002003E49F5
:10462000143908600846006800F00200009000BFDE
:1046300000BF00BF002000900846006840F0010065
:1046400008600846006800F00100009000BF00BF4D
:104650001820019002200290012003900320049072
:104660000520059001A92D48FEF78EFF80200190BE
:104670000220029001200390032004900520059061
:1046800001A92748FEF780FF2648274908604FF018
:10469000C0604860002124488160C1604FF480619F
:1046A0000161002141618161C1614FF440310162CA
:1046B00000214162FEF7D0FE08B1FEF737F900BFD6
:1046C0001948E064846300BF164818301749086031
:1046D0004FF0C06048604021144881600021C160F3
:1046E0004FF4806101610021416100E010E08161CF
:1046F000C1614FF40031016200214162FEF7ACFE5E
:1047000008B1FEF713F900BF0848A064846300BF36
:1047100006B010BD003001404438024000040240A1
:104720000000024040640240EC0B00204C0C0020D2
:104730002DE9F84F04460A9E8A4693461F460125F6
:10474000FFF740F8804694F851006168012809D0CD
:10475000B1F5827F03D1A16809B9042802D00220F3
:10476000BDE8F88FBAF1000F28D0BBF1000F25D0BB
:10477000380023D094F85000012822D0012084F87A
:10478000500094F85100042802D0052084F851000C
:104790004FF00009C4F85490C4F838B0E787A787F1
:1047A000C4F830A0E786A786C4F84090C4F84490C7
:1047B0002068016811F0400F06D009E00120BDE833
:1047C000F88F0220BDE8F88F016841F040010160D8
:1047D000E068B0F5006F05D0606800284DD0012F6B
:1047E0004BD083E0606808B1012F3FD1206B216876
:1047F0000088C860206B801C2063E08E401EE0862D
:1048000034E02068816811F0020F0DD0E18E59B1BB
:10481000012D09D1216B0988C160206B801C2063A8
:10482000E08E401EE08600252068816811F0010FAF
:104830000BD0E18F49B1C068A16B0880A06B801CD0
:10484000A063E08F401EE0870125FEF7BBFFA0EBD1
:104850000800B0420AD3B6F1FF3F07D0012084F828
:10486000510084F850900320BDE8F88FE08E0028B6
:10487000C7D1E08F0028C4D13EE0206B21680078CA
:104880000873206B401C2063E08E401EE0862DE004
:104890002068816811F0020F0DD0E18E59B1012D11
:1048A00009D1216B09780173206B401C2063E08ED5
:1048B000401EE08600252068816811F0010F0BD0B2
:1048C000E18F49B1C068A16B0870A06B401CA06368
:1048D000E08F401EE0870125FEF774FFA0EB080083
:1048E000B04202D3B6F1FF3F13D196B1E08E00285B
:1048F000CED1E08F0028CBD142463146204603F08E
:104900003DF870B12020606584F850900120BDE82A
:10491000F88F012084F8510084F850900320BDE8FE
:10492000F88FA06818B92068C168806800900120DD
:1049300084F8510084F85090606D10B10120BDE8FA
:10494000F88F0020BDE8F88F401EB0F1807F01D3C2
:10495000012070474FF0E0214861044AF0201070B8
:1049600000208861072008610020704723ED00E0E7
:1049700030B490F83C20012A44D0012480F83C4017
:10498000022280F83D200268D2F804C093682CF01F
:10499000700C0D6845EA0C0CC2F804C00268A2F164
:1049A000804CBCF5803C20D0B2F1804F1DD0A2F1EC
:1049B000804CBCF5806C18D0A2F1804CBCF5006C2A
:1049C00013D0A2F1804CBCF5406C0ED0A2F1804C0B
:1049D000BCF5823C09D0A2F1804CBCF5A03C04D0CF
:1049E000A2F1804CBCF5C05C04D123F0800349687F
:1049F0001943916080F83D40002180F83C1030BCA4
:104A00000020704730BC0220704710B50446002CCF
:104A100003D094F83D0010B107E0012010BD002044
:104A200084F83C00204600F01FF8022084F83D0086
:104A3000211D206803F0E6F8012084F8460084F880
:104A40003E0084F83F0084F8400084F8410084F878
:104A5000420084F8430084F8440084F8450084F858
:104A60003D00002010BD000008B5344A01689142A5
:104A70000FD100BF002100913149096841F00201C6
:104A80002F4A11601146096801F00201009100BF30
:104A900053E02C4A016891420FD100BF00210091E0
:104AA0002749096841F00401254A11601146096847
:104AB00001F00401009100BF3FE0234A01689142E8
:104AC0000FD100BF002100911D49096841F0080184
:104AD0001B4A11601146096801F00801009100BFEE
:104AE0002BE01A4A0168914211D100BF00210091C8
:104AF0001349091D096841F00201114A121D116094
:104B00001146096801F00201009100BF15E0104A4A
:104B10000168914211D100BF002100910849091D8F
:104B2000096841F40031064A121D116011460968F6
:104B300001F40031009100BF00BF08BD0004004037
:104B40004038024000080040000C004000040140D2
:104B50000044014090F83D10012901D00120704728
:104B6000022180F83D100068A0F18041B1F580314C
:104B700026D0B0F1804F23D0A0F18041B1F5806103
:104B80001ED0A0F18041B1F5006119D0A0F18041A3
:104B9000B1F5406114D0A0F18041B1F582310FD060
:104BA000A0F18041B1F5A0310AD0A0F18041B1F56A
:104BB000C05105D0016841F001010160002070473B
:104BC000816801F007010629F8D0016841F0010170
:104BD0000160F3E770B50446002594F83C00012815
:104BE00018D0012684F83C60022084F83D0020683B
:104BF000826822F0770222F47F428260086850289F
:104C000039D00EDC202854D006DC002851D01028E2
:104C100011D14EE0022070BD30284AD040280AD180
:104C20003DE0602831D070280DD0B0F5805F03D012
:104C3000B0F5005F13D0012584F83D60002084F8B2
:104C40003C00284670BDCB684A688968206803F03C
:104C50005AF82068816841F077018160ECE7CB6801
:104C60004A688968206803F04EF82068816841F43A
:104C700080418160E0E7CA684968206803F032F942
:104C80005021206803F04AF8D6E7CA6849682068CE
:104C900003F03BF96021206803F040F8CCE7CA68D4
:104CA0004968206803F01EF94021206803F036F8B7
:104CB000C2E722680146104603F030F8BCE7000066
:104CC00010B586B00446142101A8FCF7DEF9584956
:104CD0002068884224D100BF002000905548006819
:104CE00040F00400534908600846006800F00400E2
:104CF000009000BF00BF88150190022002900120A3
:104D0000039002200490059001A94B48FEF73CFC5B
:104D10004A48FFF71FFF0821484800F03FF984E0A8
:104D200047492068884225D100BF002000904148B3
:104D3000006840F008003F4908600846006800F03D
:104D40000800009000BF00BF4FF480400190022097
:104D500002900120039002200490059001A9394897
:104D6000FEF712FC3848FFF7F5FE0821364800F040
:104D700015F95AE03549206888422DD100BF00203E
:104D800000902C48006840F080002A4908600846DE
:104D9000006800F08000009000BF00BF4FF4E050BA
:104DA00001900220029001200390022004900590BF
:104DB00001A92748FEF7E8FB2648FFF7CBFE0021B4
:104DC000244800F0EBF80421224800F0E7F808211D
:104DD000204800F0E3F828E01F492068884224D1E9
:104DE00000BF002000901348006840F020001149E7
:104DF00008600846006800F02000009000BF00BF77
:104E00004020019002200290012003900220049093
:104E10000320059001A91148FEF7B6FB1048FFF7E3
:104E200099FE00210E4800F0B9F806B010BD000050
:104E3000000400403038024000080240AC0C002062
:104E400000080040000C0240F40C0020000C004060
:104E5000001C02403C0D00200044014000140240B0
:104E6000CC0D002070B504460D46002694F83C0099
:104E700001280FD0012084F83C006AB1042A1FD019
:104E8000082A32D00C2A44D00126002084F83C00A5
:104E9000304670BD022070BD2946206802F046FFF2
:104EA0002068816941F0080181612068816921F0F1
:104EB00004018161206881692A6911438161E4E705
:104EC0002946206802F06AFF2068816941F4006188
:104ED00081612068816921F4806181612068816934
:104EE0002A6941EA02218161CFE72946206802F060
:104EF00091FF2068C16941F00801C1612068C16962
:104F000021F00401C1612068C1692A691143C161AE
:104F1000BBE72946206802F0B9FF2068C16941F467
:104F20000061C1612068C16921F48061C1612068AC
:104F3000C1692A6941EA0221C161A6E710B50446A8
:104F4000002C03D094F83D0010B107E0012010BD03
:104F5000002084F83C00204600F01EF8022084F86F
:104F60003D00211D206802F04DFE012084F846001E
:104F700084F83E0084F83F0084F8400084F8410043
:104F800084F8420084F8430084F8440084F8450023
:104F900084F83D00002010BD7047000010B50446A5
:104FA000002909D004290AD008290BD094F841001F
:104FB00001280AD0012010BD94F83E00F8E794F8CB
:104FC0003F00F5E794F84000F2E70220D9B3042946
:104FD00047D0082948D084F841000122206802F017
:104FE00083FE234A20682349904201D0884203D19E
:104FF000436C43F4004343642068904224D0B0F1F2
:10500000804F21D0A0F18042B2F580621CD0A0F187
:105010008042B2F5006217D0A0F18042B2F5406242
:1050200012D0884210D0A0F18041B1F5A0310BD050
:10503000A0F18041B1F5C05106D0016841F00101F5
:105040000160002010BD09E0816801F00701062918
:10505000F7D0016841F001010160F2E784F83E00F9
:10506000BBE784F83F00B8E784F84000B5E70000EC
:10507000000001400004014070B50446002C04D03B
:1050800094F84100002510B106E0012070BD84F8BD
:105090004050204600F024F8242084F84100206885
:1050A000C16821F40051C160204602F043FF20682E
:1050B000016921F4904101612068416921F02A01D0
:1050C00041612068C16841F40051C16065642020DD
:1050D00084F8410084F842006563002070BD000040
:1050E00010B586B00446142101A8FBF7CEFF2F4966
:1050F0002068884258D100BF002000902C480068EA
:1051000040F480202A4908600846006800F48020A6
:10511000009000BF00BF00BF00200090244810385E
:10512000006840F004002249103908600846006811
:1051300000F00400009000BF00BF4FF440600190F9
:105140000220029000200390032004900720059085
:1051500001A91848FEF718FA1748184908604FF0D7
:1051600000604860002115488160C1604FF4806193
:105170000161002141618161C1614FF4003101622F
:1051800000214162FEF768F908B1FDF7CFFB00BFCF
:105190000A48E063846300BF002204212720FEF751
:1051A000CDFC2720FEF7BCFC06B010BD0048004037
:1051B0004038024000080240286002405C0E002097
:1051C00070B5044600202074A37B484D2D8803FB56
:1051D00005F26168D4F8F400FBF7FBFEA27B434BB9
:1051E0001B8802FB03F16068FBF74FFFA27B3F4B7C
:1051F0001B885A43A37B02FB03F1D4F81801FBF789
:1052000044FF227B394B1B885A43A37B02FB03F1EB
:10521000D4F80C01FBF739FF002031E0D4F8F4108A
:1052200001EB800191ED000AB5EEC00AF1EE10FA33
:1052300024D0D4F8F41001EB800191ED000A227C17
:10524000D4F8F41001EB820181ED000A227C616A3E
:105250008854A16901EB800191ED000A6169095C44
:10526000227B237C12FB0311491ED4F80C2102EB94
:10527000810181ED000A217C491C2174411CC8B2C6
:10528000A17B8142CADC002011E0626A125CE16904
:1052900001EB820191ED000A227C00FB0202D4F8AE
:1052A000181101EB820181ED000A411CC8B2217C7A
:1052B0008142EADC207CA4F87800217B7A2001532B
:1052C000207BA4F88000217C82200153207CA4F85C
:1052D0009000217C92200153207BA4F89800217C2F
:1052E0009A200153207CA4F8480070BDC802002019
:1052F00000BFFEE710B5044654F8EC0F90ED000A2D
:10530000834880ED000A206890ED010A814880ED15
:10531000000A206890ED020A7F4880ED000A54F8E8
:10532000EC0990ED030A7D4880ED000A7848D0ED45
:10533000000A60EEA00A774890ED001AD0ED001A3E
:1053400041EE210A744890ED001AD0ED001A41EEAA
:10535000210A724890ED001AD0ED001A41EE210AA0
:10536000B0EE600A05F092F96D4880ED000A002069
:1053700012E0D4F8EC1001EB800191ED000A6849CD
:10538000D1ED000A20EE200AD4F8EC1001EB8001E8
:1053900081ED000A411CC8B20428EADB614890EDA7
:1053A0006F0A5C48D0ED000A20EE200AF0EE000AF9
:1053B00080EE201AF834A06880ED041A594890ED68
:1053C0006F0A5548D0ED000A20EE200AF0EE000AE0
:1053D00080EE201AA06880ED051A524890ED6F0A01
:1053E0004B48D0ED000AF1EE600A20EE200AF0EE04
:1053F000000A80EE201AA06880ED0A1A494890ED54
:105400006F0A4648D0ED000A20EE200AF0EE000AAE
:1054100080EE201AA06880ED0B1A424890ED6F0ACA
:105420003E48D0ED000AF1EE600A20EE200AF0EED0
:10543000000A80EE201AA06880ED101A394890ED1D
:105440006F0A3348D0ED000AF1EE600A20EE200A20
:10545000F0EE000A80EE201AA06880ED111A3148A3
:1054600090ED6F0A2C48D0ED000A20EE200AF0EEF5
:10547000000A80EE201AA06880ED161A294890EDE7
:105480006F0A2448D0ED000AF1EE600A20EE200AEF
:10549000F0EE000A80EE201AA06880ED171A20684E
:1054A00090ED1C0A1F48D0ED740A80EE201A206887
:1054B00080ED1C1A206890ED230A1A48D0ED740A7A
:1054C00080EE201A206880ED231A54F8F80990ED38
:1054D0001C0ADFED150AB4EEE00AF1EE10FA05DD64
:1054E0009FED110AD4F8F80080ED1C0AD4F8F800FA
:1054F00090ED230ADFED0C0AB4EEE00AF1EE10FAAB
:1055000005DD9FED090AD4F8F80080ED230A10BDEF
:105510006C03002070030020740300207803002037
:105520007C030020981A002000401C4610B52DED89
:10553000068BF0EE408AB0EE60AAB0EE419AB0EE73
:10554000618AF0EE429A01203A4908700846C0ED9F
:105550006C8A80ED6DAA80ED6E9A9FED370A80ED22
:10556000730A002081F838010A46C2F84001C2F8E7
:1055700044010021C2F84811C2F84C11B7EE000AEC
:10558000B4EEC08AF1EE10FA03DDB7EE000AB0EE19
:10559000408A284880ED748AC0ED649A0323002273
:1055A0000621001D00F09EFD244B01221146A3F1AF
:1055B0000800FAF7DBFFB7EE000A1E48D0F8EC004F
:1055C00080ED000A9FED1E0A1A48D0F8EC0080ED2D
:1055D000010A9FED1B0A1748D0F8EC0080ED020A83
:1055E0009FED170A1348D0F8EC0080ED030A154927
:1055F0001048C0F8D0101449C0F8D4101349C0F8AE
:10560000D8101349C0F8DC10012180F82E1080F862
:105610002F1001469022D1F804010E49FBF7D9FC66
:1056200004499022D1F8FC000B49FBF7D2FCBDECF9
:10563000068B10BD981A002077CC2B32601C0020FE
:10564000000000005D560008F55200089156000861
:10565000B957000848DE0008CC02002010B5044607
:1056600054F8F81F90220748FBF7B3FC482206487D
:10567000616AFBF7AEFC6169F83C48220348FBF71E
:10568000A8FC10BDCC020020781C0020C01C00200B
:1056900010B5044654F8EC0F90ED000AF0EE000A45
:1056A00020EE200A3F4880ED000A206890ED010AB4
:1056B000F0EE000A20EE200A3B4880ED000A206848
:1056C00090ED020AF0EE000A20EE200A374880ED45
:1056D000000A206890ED030AF0EE000A20EE200A8E
:1056E000334880ED000A14F8DE2C324B1B885A43F5
:1056F00014F8E03C02FB03F1206AFBF7C6FC2B48E0
:1057000090ED000AB1EE400A206A80ED000A2848B8
:1057100090ED000A206A80ED010A224890ED000A0F
:10572000B1EE400A206A80ED020A1F4890ED000A9F
:10573000206A80ED030A1C4890ED000A206A80ED83
:10574000060A184890ED000A206A80ED070A1848FA
:1057500090ED000A206A80ED080A144890ED000AD6
:10576000206A80ED090A0F4890ED000A206A80ED5A
:105770000C0A0D4890ED000AB1EE400A206A80ED57
:105780000D0A0A4890ED000AB1EE400A206A80ED49
:105790000E0A074890ED000A206AEC3C80ED0F0AE3
:1057A00010BD000080030020840300208803002037
:1057B0008C030020C802002070B52DED028B04463A
:1057C00004F1800104F17800FBF78EFA84F8C80038
:1057D000B4F87800A4F8A8005A20015BAA2001536D
:1057E00004F1A80204F1580104F17800FBF75AF91A
:1057F00084F8C800B4F8A800A4F8B0008220015BC7
:10580000B220015304F1B00204F1800104F1A800B8
:10581000FBF748F984F8C800B4F89000A4F8A00099
:105820009220015BA220015304F1A00204F1900137
:1058300004F1B000FAF716FE84F8C80004F1B001D4
:1058400004F1A000FAF796FEAC342077206C90EDBE
:10585000000AFE4880ED000A206C90ED010AFC4829
:1058600080ED000A206C90ED020AFA4880ED000AF3
:10587000206C90ED030AF84880ED000A34F8340CEF
:10588000A081AC3C0121BA200153F14890ED000AFF
:10589000F148D0ED000A20EE200AEC48D0ED000AD5
:1058A000EC4890ED001A00EEC10AF0EE000A20EE7E
:1058B000200AD4F82C0180ED000AE44890ED000A9B
:1058C000E348D0ED000A20EE200AE248D0ED000ABD
:1058D000E14890ED001A00EE810AF0EE000A20EE99
:1058E000200AD4F82C0180ED010AD84890ED000A76
:1058F00020EE000AD648D0ED000A90ED001A00EE26
:10590000C10AD448D0ED000A90ED001A00EEC10A99
:10591000D148D0ED000A90ED001A00EE810AD4F8CB
:105920002C0180ED020A002512E0D4F82C0100EBD6
:10593000850090ED000AB0EEC00AB0EE408A03F098
:10594000F7F8C64800EB850080ED000A681CC5B278
:10595000032DEADBB4F84800A4F8C0000121C220FE
:10596000015304F1C00204F1B80104F14800FBF74F
:1059700037F984F8C800B4F8C000A4F8A8000121E1
:10598000AA20015304F1A80204F1C00104F1B000FF
:10599000FBF788F8B8342074012020802189B83CB6
:1059A000BA20015304F1B80104F1C000FBF79CF9DF
:1059B00084F8C800A94A3C3204F1A80104F1B800F7
:1059C000FBF770F884F8C800A54890ED720AD0ED96
:1059D000730AB6EE001A60EE810AB4EEE00AF1EE48
:1059E00010FA03D201209E4981F838019C4890EDBD
:1059F000720AD0ED730AB4EEE00AF1EE10FA46DD59
:105A000090F83801002842D0954890F8390168B1E3
:105A10009348D0F84011D0F84401491C40F10000EF
:105A20008F4AC2F84011C2F8440105E000208C4AB8
:105A3000C2F84001C2F844018948D0F84031D0F89A
:105A400044210020D3F13201904106D20020844944
:105A500081F8380184F82C004AE0237B814D2D88A1
:105A600003FB05F2D4E93A01FBF7B3FA237B7D4D42
:105A70002D886B43257B03FB05F2D4E93E01FBF740
:105A8000A8FA012084F82C00BDEC028B70BD74488C
:105A900090ED720AD0ED730A9FED731A60EE810AE1
:105AA000B4EEE00AF1EE10FA14DD90F8380188B196
:105AB0006B4890ED730AD0ED720A30EE600AD0EDBB
:105AC000730A9FED6A1A60EE810A80EE201A80ED5B
:105AD000671A04E0B7EE000A614880ED670A00210A
