:020000040800F2
:10000000100C0020910100080F140008F7120008DE
:100010000D14000891040008C51900080000000034
:10002000000000000000000000000000431700086E
:10003000930400080000000041170008451700085D
:10004000AB010008AB010008AB010008AB010008E0
:10005000AB010008AB010008AB010008AB010008D0
:10006000AB010008AB010008AB010008AB010008C0
:10007000AB010008AB010008AB010008AB010008B0
:10008000AB010008AB010008AB010008AB010008A0
:10009000AB010008AB010008AB010008AB01000890
:1000A000AB010008AB010008AB010008AB01000880
:1000B000AB010008AB010008AB010008AB01000870
:1000C000AB010008AB010008AB010008AB01000860
:1000D000AB010008AB010008AB010008B91900082A
:1000E000AB010008AB010008AB01000800F002F80A
:1000F00000F03FF80AA090E8000C82448344AAF183
:100100000107DA4501D100F034F8AFF2090EBAE880
:100110000F0013F0010F18BFFB1A43F0010318473B
:1001200084250000A4250000103A24BF78C878C1B7
:10013000FAD8520724BF30C830C144BF04680C60ED
:10014000704700000023002400250026103A28BF35
:1001500078C1FBD8520728BF30C148BF0B60704739
:10016000642900F07580002070471FB51FBD10B5D1
:1001700010BD00F05BF91146FFF7F7FF01F06AFCD4
:1001800000F079F903B4FFF7F2FF03BC01F02BFC98
:100190000948804709480047FEE7FEE7FEE7FEE71B
:1001A000FEE7FEE7FEE7FEE7FEE7FEE70448054957
:1001B000054A064B70470000A7170008ED0000082D
:1001C00010060020100C002010080020100800204D
:1001D0000FB4044910B503AA029800F0F9F810BC56
:1001E0005DF814FB140000202DE9F0410E46044692
:1001F000002020622046E168884730B3252805D0DA
:10020000D4E901219047206A401CF2E7E1682046CA
:1002100000278847050018D0A5F14100192802D809
:1002200020354FF400673246294620462760FFF705
:1002300097FF40B1012804D0F61D26F007060836C6
:10024000D8E7361DD6E72846DAE7206ABDE8F08110
:100250002DE9F0410646002410687529314616A59F
:1002600010D0AFF30080002802DA404213A507E067
:1002700031688A0701D512A502E0490704D511A506
:10028000012401E0AFF3008000210A2206F12407D7
:1002900009E0B0FBF2FCB0FBF2F302FB1C003030D3
:1002A00078541846491C0028F3D123462A46304684
:1002B000BDE8F04100F032B8000000002D00000061
:1002C0002B000000200000004FF0000200B5134694
:1002D00094469646203922BFA0E80C50A0E80C5066
:1002E000B1F12001BFF4F7AF090728BFA0E80C5017
:1002F00048BF0CC05DF804EB890028BF40F8042B10
:1003000008BF704748BF20F8022B11F0804F18BF7C
:1003100000F8012B70477047704770472DE9F04790
:100320000D4699469246044600F124080168880665
:1003300004D5E06921F01001216000E00120A8420D
:1003400001DD471B00E00027A1697A1902EB0900D3
:10035000081AA0612078C00602D42046AFF30080BE
:10036000002608E0D4E901211AF806009047206A27
:10037000401C761C20624E45F4DB2078C0060AD56E
:100380002046AFF3008006E0D4E9012130209047F9
:10039000206A401C2062381EA7F10107F4DC07E048
:1003A000D4E9012118F805009047206A401C20621A
:1003B000281EA5F10105F3DC2046AFF3008020786C
:1003C000000602D50220BDE8F0870120FBE700000F
:1003D000074B70B50D467B4400F011F804462846E3
:1003E00000F020F810B14FF0FF3070BD204670BD16
:1003F0006316000001694A1C02610878704700B565
:100400008FB0CDE901310021059105497944CDE94D
:10041000031011466846FFF7E7FE0FB000BD00006D
:10042000E5FFFFFF007B00F080007047754600F09D
:100430002BF8AE4605006946534620F00700854676
:1004400018B020B5FFF7B2FEBDE820404FF000061F
:100450004FF000074FF000084FF0000B21F00701AC
:10046000AC46ACE8C009ACE8C009ACE8C009ACE8EF
:10047000C0098D46704710B50446AFF30080204692
:10048000BDE81040FFF77EBE00487047B005002071
:10049000FEE7704772B6FEE710B590F82110002213
:1004A000022905D00421816380F82020012010BD9D
:1004B00001680B6823F00E030B6001680B6823F0E2
:1004C00001030B6090F84030C46B012101FA03F383
:1004D000636080F8211080F82020104610BD0000D5
:1004E00010B590F821100024022903D00421816363
:1004F00001243DE001680A6822F00E020A600168EA
:100500000A6822F001020A601A4A0168914201D188
:10051000012121E0174A1432914201D110211BE040
:10052000144A2832914201D1891515E0114A3C3212
:10053000914201D189140FE00E4A5032914202D10A
:100540004FF4803108E00B4A6432914202D14FF4FB
:10055000801101E04FF08071064A083A5160012194
:1005600080F82110002180F82010416B01B18847EC
:10057000204610BD0800024070B5044600F004F9A2
:100580000546601C02D004480078044400F0FCF8E2
:10059000401BA042FAD370BD180000202DE9F84F8F
:1005A000DFF8B8910024A9F1040B23460F2709F1C5
:1005B000040AABF1040EC9E00125A5402A40AA4275
:1005C0007DD1674ED1F804C0ACEB0608B44532D0FB
:1005D00014DCBCF1030F3AD009DCBCF1000F2AD0C7
:1005E000BCF1010F1CD0BCF1020F31D11DE0BCF1F8
:1005F000110F17D0BCF1120F2AD119E0B8F5881FDE
:1006000019D006DCB8F5803F15D0B8F5801F1FD192
:1006100011E0B8F5001F0ED0B8F5041F18D10AE09C
:10062000CB6815E0CB681B1D12E0CB6808330FE0E8
:10063000CB680C330CE08B682BB1012B4FF0080317
:1006400003D0456104E0042302E0056100E00023DB
:10065000FF2A01D8064601E000F104064FEA8405AE
:1006600001D9A5F12005D6F8008007FA05FC28EA93
:100670000C0803FA05F548EA0508C6F800804D683D
:10068000ED0062D5374DAE6946F00106AE61AD6949
:1006900024F0030605F001050095334D06EB050C2B
:1006A000DCF80850A607360F07FA06F825EA080511
:1006B000DFF8B880404503D14FF0000817E044E070
:1006C000DFF8AC80404502D14FF001080FE0DFF8C1
:1006D000A480404502D14FF0020808E0DFF898807E
:1006E000404502D14FF0030801E04FF0040808FA3A
:1006F00006F848EA0508CCF808804D68D9F800608B
:10070000ED024D4601D5164300E096432E604D683C
:10071000DAF80060AD02554601D5164300E0964375
:100720002E604D68DBF80060AD035D4601D51643D1
:1007300000E096432E604D68DEF80060ED037546DC
:1007400001D5164300E096432E60641C0D682A46CE
:10075000E5407FF431AFBDE8F88F000008040140A8
:10076000000011100010024000000140000801408C
:10077000000C014000100140001401400AB1016169
:1007800070470904FBE700000148806870470000DB
:100790001800002002488168027811448160704787
:1007A00018000020074810B5016841F010010160F1
:1007B000032000F079F80F2000F006F800F024F88C
:1007C000002010BD0020024070B50D4D04464FF4CE
:1007D0007A712878B1FBF0F00A490968B1FBF0F0B2
:1007E00000F0E0FA48B9102C07D200222146501E32
:1007F00000F03AF800206C6070BD012070BD000070
:1008000018000020240000200E4808B5816941F03E
:1008100001018161816901F001010091C16941F02B
:100820008051C161C06900F080500090052000F047
:100830003BF80548416821F0E06141F000714160FA
:1008400008BD00000010024000000140002809DB44
:1008500000F01F02012191404009800000F1E020DA
:10086000C0F8001170470000F0B40E4B1B680C4636
:10087000C3F30223C3F10705042D00D90425191D74
:10088000072901D2002300E0DB1E012606FA05F14C
:10089000491E214099409E40761E16403143F0BCCF
:1008A00001F091B80CED00E0064900F0070208687D
:1008B0004FF6FF03184040EA0220034A1043086045
:1008C000704700000CED00E00000FA052DE9F0474C
:1008D0000F46050061D0434E306800F00700B84273
:1008E00009D2306820F0070038433060306800F0EB
:1008F0000700B84251D128683B4C810712D5400708
:1009000003D5606840F4E06060602878000703D594
:10091000606840F4605060606068A96820F0F00092
:10092000084360602878C00728D06868012810D084
:100930002168022810D0890700292EDA616821F089
:10094000030101436160FFF71FFF804641F28839D0
:100950000DE021688903EFE78901EDE7FFF714FF58
:10096000A0EB0801494502D90320BDE8F087606883
:10097000696800F00C00B0EB810FEFD1306800F037
:100980000700B8420BD9306820F0070038433060C8
:10099000306800F00700B84201D00120E5E7287870
:1009A000400705D56068E96820F4E06008436060AE
:1009B0002878000706D56068296920F4605040EA6D
:1009C000C100606000F038F86168084AC1F30311A3
:1009D000515CC8400649086006480068FFF7F4FE0D
:1009E0000020C2E70020024000100240261C000840
:1009F000240000201C0000200448054900684968C4
:100A0000044AC1F30221515CC84070472400002011
:100A100000100240361C0008044805490068496877
:100A2000044AC1F3C221515CC84070472400002031
:100A300000100240361C00080E4A51680E4801F0B2
:100A40000C03042B11D0082B0FD10C48C1F38343A6
:100A5000C903C05C0AD55168084AC1F34041921EDF
:100A6000515C054A5043B0FBF1F0704704494843DC
:100A7000704700000010024000127A00161C0008A7
:100A800000093D002DE9F84F040070D02078C04DDA
:100A9000C00749D06868C0F38100012807D06868A2
:100AA000C0F38100022809D16868C00306D5286810
:100AB000800339D560680028E7D035E06068B0F57C
:100AC000803F0BD010B1B0F5A02F11D0286820F4D2
:100AD00080302860286820F4802002E0286840F4F4
:100AE00080302860606890B1FFF74EFE06460AE04D
:100AF000286840F480202860F0E700BFFFF744FE3C
:100B0000801B642873D828688003F7D50CE0FFF7B2
:100B10003BFE064605E000BFFFF736FE801B64285B
:100B2000F0D828688003F7D420789A4E80074FF0D9
:100B300001094FF0000839D5686810F00C0F07D094
:100B40006868C0F38100022809D16868C00306D430
:100B50002868800714D52069012808D110E0206991
:100B6000B0B1C6F80090FFF70FFE074605E00AE1B6
:100B7000FFF70AFEC01B0228C4D828688007F7D5F3
:100B80002868616920F0F80040EAC10028600DE0A3
:100B9000C6F80080FFF7F8FD074604E0FFF7F4FD14
:100BA000C01B022823D828688007F7D420780007C4
:100BB0002CD57948A169D9B1C0F80090FFF7E4FDC0
:100BC000074604E0FFF7E0FDC01B02280FD8686A63
:100BD0008007F7D571484FF4FA510068B0FBF1F087
:100BE000009000BF0098411E0091FAD20EE080E014
:100BF000C0F80080FFF7C8FD074604E0FFF7C4FD1A
:100C0000C01B022875D8686A8007F7D4207840078F
:100C100060D5E8690027C00008D4E86940F080503A
:100C2000E861E869012700F0805000905C480168A5
:100C3000C90513D40168834641F480710160FFF750
:100C4000A3FD824606E000BFFFF79EFDA0EB0A0071
:100C500064284ED8DBF80000C005F5D5E06801280F
:100C60000AD008B1052813D0286A20F001002862B4
:100C7000286A20F0040002E0286A40F0010028629F
:100C8000E06841F2883B98B1FFF77EFD82460BE0B9
:100C9000286A40F004002862EEE700BFFFF774FD09
:100CA000A0EB0A0159455AD8286A8007F6D50CE00E
:100CB000FFF76AFD824605E0FFF766FDA0EB0A013B
:100CC00059454CD8286A8007F6D41FB1E86920F04E
:100CD0008050E861E06988B36968C1F38101022945
:100CE00044D00228C6F8608004D0FFF74DFD0446CA
:100CF00038E034E0FFF748FD074604E0FFF744FD25
:100D0000C01B02282BD828688001F7D4206AB0F5D0
:100D1000803F05D16868A16820F40030084368600E
:100D2000D4E908010843696821F474110843686034
:100D3000C6F86090FFF728FD044606E025E000BFF6
:100D4000FFF722FD001B022809D828688001F7D58B
:100D50001BE000BFFFF718FD001B022802D903208B
:100D6000BDE8F88F28688001F4D40EE00128F7D0A0
:100D70006868226A00F48031914204D1616A00F40B
:100D80007010884201D00120EAE70020E8E7000067
:100D90000010024000004242800442422400002031
:100DA0000070004010B5401EB0F1807F01D30120DB
:100DB00010BD4FF0E02460610F21601700F003FECA
:100DC0000020A06107202061002010BD70477047FF
:100DD000F8B5016804460868CA684B6910F00F0F3F
:100DE0004FF0000559D003F0010602F49077374325
:100DF00065D0C10705D0D10503D5616C41F0010173
:100E00006164410705D5D90703D0616C41F0020147
:100E10006164810705D5D90703D0616C41F00401F5
:100E20006164010707D502F02001314303D0616CF2
:100E300041F008016164616C00293AD0800604D554
:100E4000900602D5204600F0DEFC20684069616C07
:100E5000C0F38010090700D460B3204600F0ACFC5A
:100E600020684069400621D52068143050E8001FF2
:100E700021F0400140E80012002AF5D1E06BA8B152
:100E80006D494163E06BFFF72BFB002811D0E06B4D
:100E9000416B01B0BDE8F040084783060FD59306CB
:100EA0000DD52046BDE8F84000F0ADBC2046FFF768
:100EB0008EFFF8BD2046FFF78AFF6564F8BD266BFC
:100EC0002023012E7CD1C6067AD5D60678D50868AF
:100ED0004868009048694FF00206400640D5E16B33
:100EE000086840680004000CE8D0A28D8242E5D971
:100EF000E085886920282DD020680C3050E8001F3C
:100F000021F4807140E80012002AF5D120681430E5
:100F100050E8001F21F0010140E80012002AF5D13D
:100F20002068143050E8001F21F0400140E8001212
:100F3000002AF5D184F84230256320680C3050E84F
:100F4000001F21F0100140E80012002AF5D1E06BEB
:100F5000FFF7A2FA6663A08DE18D401A81B22AE004
:100F6000A08DE18D401A81B2E08D0028A6D0002925
:100F7000A4D022680C3252E8000F20F4907042E8AE
:100F80000007002FF5D12068143050E8002F22F020
:100F9000010240E80027002FF5D184F84230256394
:100FA00020680C3050E8002F22F0100240E80023A7
:100FB000002BF5D166632046FFF708FFF8BDFFE779
:100FC00005062BD5150629D594F841002128F5D121
:100FD000A068B0F5805F01D12069B0B1206A411CE2
:100FE0002162216800784860E08C401E0004000CFB
:100FF000E084E3D12068C16821F08001C1602068ED
:10100000C16841F04001C160D8E7206A0088C0F3A0
:1010100008004860206A801C2062E5E74006CDD5C4
:101020005006CBD5CA68204622F04002CA6084F838
:10103000413000F05FF9C1E7A917000870B504005E
:1010400004D094F84100002510B106E0012070BDE5
:1010500084F84050204600F023F8242084F8410012
:101060002068C16821F40051C160204600F02CFCCA
:101070002068016921F4904101612068416921F0F3
:101080002A0141612068C16841F40051C160656472
:10109000202084F8410084F842006563002070BD80
:1010A00070B586B000240094019402940394036800
:1010B0002B482A4E022103220515B34221D1836910
:1010C00043F480438361836903F480430493836919
:1010D00043F0040383618069224E00F00400049011
:1010E0000802CDE90001039269463046FFF756FA3F
:1010F000CDE90054694630460294FFF74FFA06B036
:1011000070BD194EB342FAD1C36943F48023C36161
:10111000C36903F480230493836943F00803836164
:101120008069CDE9005100F00800CDE903200F4DA2
:1011300069462846FFF732FAE814CDE9000469460B
:1011400028460294FFF72AFA002211462720FFF7CB
:101150008BFB2720FFF77AFBD1E700000038014026
:10116000001002400008014000480040000C01400F
:1011700090F84230202B01D00220704721B11AB1E3
:101180000023036300F0FCBB012070472DE9F0470A
:101190000068514988426FD150480025441F2246BB
:1011A00001785778521D267812784D484D4B7A4079
:1011B0004FF0030C052E4DD92A2E23D2B6FBFCF599
:1011C000E1460CFB156C2546DFF814812878AD78D4
:1011D000401CC7B205EB45004044BCF1000F0BD0EA
:1011E000B6FBF9F809FB1866012E07D001726D1CD9
:1011F000A5702770985C48E0C180FAE7C58805EBC8
:101200000121F9E72A3E052E40D2DFE806F0030669
:101210000C0F150041852B204EE0458D05EB01217B
:1012200041852C2048E081852D2045E0858D05EB0A
:10123000012181852E203FE080F82E10B94205D192
:1012400000F0D2FB28490888401C08806570257092
:10125000A5701BE0062E19D2DFE806F0030F1C2054
:101260002629542905D101700120207087F05400EF
:101270000AE02570657009E020E02C29F9D1417061
:101280000220207087F02C00185C60700122134946
:1012900016481BE0418084F800C0ABE7458805EBA9
:1012A00001214180042007E08180052004E0858839
:1012B00005EB01218180062020709BE70C498842C4
:1012C00008D1064909480122491E4838BDE8F047BF
:1012D000FFF74EBFBDE8F08700480040090000203E
:1012E00080010020141B0008000000207000002076
:1012F000003801407047FEE72DE9F04186B0002438
:1013000020480094019402940394816941F02001E3
:101310008161816901F020010491816941F0080136
:101320008161816901F008010491816941F0040142
:1013300081618069144F00F004004FF4004504906F
:10134000002229463846FFF719FADFF840800022CC
:1013500038214046FFF712FA009502260125039630
:10136000CDE9015469463846FFF718F93820CDE930
:101370000005CDE9024669464046FFF70FF906B081
:10138000BDE8F0810010024000080140000C01405F
:101390000C4810B50A4901604FF4E1314160002169
:1013A00081600C22C160C0E904128161C161FFF754
:1013B00045FE002803D0BDE81040FFF76BB810BD14
:1013C00000380140280000200E4810B50C4901608B
:1013D0004FF461214160002181600C22C160C0E9AD
:1013E00004128161C161FFF729FE08B1FFF752F8CD
:1013F000BDE81040012204490248FFF7B9BE0000D1
:10140000004800407000002009000020FEE7FEE7D1
:1014100010B40021084B0A465FF0000003EBC00443
:10142000401CC0B262548028F8D3491CC9B20829B4
:10143000F2D310BC00F096B8AF01002010B57F28A1
:1014400016D83F2914D80723A3EBD10301F00701D5
:10145000C1F107040121A140064CDBB204EBC0003E
:10146000002AC25CC9B201D00A4300E08A43C254D8
:1014700010BD0000AF01002010B5394C0020C4F8A9
:101480008C01642004F5C674FFF776F80120206013
:101490000021AE2000F030F90021D52000F02CF919
:1014A0000021502000F028F90021A82000F024F9A4
:1014B00000213F2000F020F90021D32000F01CF98A
:1014C0000021084600F018F90021402000F014F92E
:1014D00000218D2000F010F90021142000F00CF9FB
:1014E0000021202000F008F90021022000F004F97A
:1014F0000021A12000F000F90021C02000F0FCF83C
:101500000021DA2000F0F8F80021122000F0F4F8B1
:101510000021812000F0F0F80021EF2000F0ECF82D
:101520000021D92000F0E8F80021F12000F0E4F8D3
:101530000021DB2000F0E0F80021302000F0DCF892
:101540000021A42000F0D8F80021A62000F0D4F853
:101550000021AF2000F0D0F8BDE81040FFF758BFE1
:101560000080214270B5114E002400BF04F1B0008C
:10157000C0B2002100F0C0F80021084600F0BCF81D
:101580000021102000F0B8F85FF0000506EBC50060
:101590000121005D00F0B0F86D1CEDB2802DF5D397
:1015A000641CE4B2082CE1D370BD0000AF01002040
:1015B0002DE9FF4F203A1F460C46894602F0FF0AEC
:1015C0000025DDF834B032E00C2F09D01A4901EBC8
:1015D0000A104FF00008465D300607D55A4609E06C
:1015E00016490AEB4A0001EB8000F2E7BBF1000F5D
:1015F00012D0002221460098FFF720FF7006641CDD
:10160000060EE4B2A4EB0900B84207D100984C469C
:10161000401CC0B2009008E00122EBE708F1010095
:1016200000F0FF08B8F1080FD6D36D1CEDB2BD4233
:10163000CAD3BDE8FF8F0000B22000083E1C00089E
:101640002DE9FF4F81B00026DDF838A01D469346F6
:10165000814634464FF001084FEA5A0727E0281B1D
:10166000401EC1B20A2000F04DFABBFBF0F00A2187
:10167000B0FBF1F201FB120026B9691E8C4201DABF
:1016800048B101263030C2B207FB0490C0B25346C5
:10169000CDF8008006E007FB0490C0B2534620223C
:1016A000CDF800800299FFF783FF641CE4B2AC42DE
:1016B000D5D305B0BDE8F08FF8B516460D46044603
:1016C000012714E07A2C02D900241035EDB23A2D0E
:1016D00003D900242546FFF79BFE009732780C23A0
:1016E00029462046FFF764FF0834E4B2761C3078C0
:1016F0000028E7D1F8BD000070B50F4C002501228D
:1017000011B1C4F8BC2101E0C4F8BC510B4B00215D
:10171000C3F89451060602D5C3F8902101E0C3F83E
:101720009051C3F894214006491C000EC9B2082903
:10173000EED3C4F8BC2170BD0000214200802142DC
:1017400070477047FFF726B830B58FB0282168463C
:10175000FEF7BAFD14210AA8FEF7B6FD0121080420
:10176000CDE900100024029402250491CDE9075030
:101770004FF4E01009906846FFF784F908B172B69B
:10178000FEE70F20CDE90A054FF48060CDE90C405B
:1017900002210AA80E94FFF799F8002801D072B62A
:1017A000FEE70FB030BD704710B5406A0021C1851B
:1017B000C184FFF70CFB10BD01680C3151E8002F0C
:1017C00022F4907241E80023002BF5D10168143116
:1017D00051E8002F22F0010241E80023002BF5D14F
:1017E000016B012909D101680C3151E8002F22F069
:1017F000100241E80023002BF5D1202180F842108F
:1018000000210163704708B590F84210222901D0E9
:10181000022008BD82684FF480539A4201D10169C9
:1018200021B1816A9A421BD04AB10AE00268816AFA
:101830005268C2F308020A80816A891C08E00269C2
:1018400072B10268526802F07F020A70816A491C14
:101850008162C18D491E0904090CC18503D01BE0BA
:1018600002685268F1E70168CA6822F02002CA6083
:101870000168CA6822F48072CA6001684A6922F06D
:1018800001024A61202180F8421000214163026B6D
:10189000012A03D0FFF77AFC002008BD016301682C
:1018A0000C3151E8002F22F0100241E80023002BF8
:1018B000F5D101680A68D20602D50A684968009124
:1018C000818DFFF783FAE7E770B504460068016988
:1018D000E26821F44051114301612169A068084385
:1018E000616908432168CA6841F20C639A43024364
:1018F000CA6020684169A26921F4407111434161C5
:101900001E492068884202D1FFF786F801E0FFF700
:1019100073F800EBC00101EB0012606864218000E5
:10192000B2FBF0F3B3FBF1F36FF018067343B2FBB5
:10193000F0F5B2FBF0F605EB8305322303EB05155A
:10194000B5FBF1F5B6FBF1F605F0F00505EB061574
:10195000B2FBF0F6B2FBF0F0B0FBF1F06FF0180262
:10196000504306EB800003EB0010B0FBF1F0216860
:1019700000F00F002844886070BD0000003801406E
:1019800081628285C28500214164222180F8421053
:10199000016921B10168CA6842F48072CA600168B5
:1019A0004A6942F001024A610068C16841F02001C1
:1019B000C1600020704700000148FFF709BA00002D
:1019C00070000020FEE70907090E002804DB00F183
:1019D000E02080F80014704700F00F0000F1E020D4
:1019E00080F8141D7047704730B51149114C002024
:1019F000D1F80C2000EB40032344DB881BB1CD88D9
:101A00001A446D1CCD80401CC0B20C28F2D3CA60B1
:101A1000C878401CC0B2C870642808D1C888B2FB1E
:101A2000F0F0054A10800020C860C880C87030BD42
:101A300004000020800100200200002004490A6800
:101A40005206FCD5024AC1B2121D11607047000057
:101A50000038014008B5FEF7A5FEFFF775FEFFF759
:101A60004BFCFFF795FCFFF7AFFCFFF705FD13A05C
:101A7000FEF7AEFB164C0C2516A02188FEF7A8FB3E
:101A8000618818A0FEF7A4FB0A20FEF775FD19A2D5
:101A900014210020FFF710FE19A214216E20FFF779
:101AA0000BFE00950523628814214420FFF7C8FD32
:101AB000FFF758FD0A20FEF75FFDDDE757656C6311
:101AC0006F6D6520746F20757365210D0A0000002D
:101AD00000000020B3C9B9A6BDD3CAD52564B4CED1
:101AE0000A0D0000BEE0C0EBCAC725646D6D0A0D8B
:101AF0000000000044697374616E63653A00000081
:101B00006D6D00000246012000E05043491EC9B23D
:101B1000FBD27047004D9AD77934E3AEF2BF682507
:101B20008BC6115CA9E4337ED09D4A075B16C18C3D
:101B3000226FB8F51F5285C8662BFCB1EDA0773A2D
:101B400094D90E43B6FB2C61CF8255184409DE931D
:101B50003D70A7EA3E73A4E9470ADD90CC81561B8D
:101B6000B5F82F6297DA0D40EEA374396528FFB2FD
:101B70001C5186CB216CBBF65815C28FD39E4904ED
:101B8000AAE7307D88C5125FF1BC6B267A37E0ADDD
:101B9000034E99D47C31E6AB05489FD28EC31459CD
:101BA000F7BA6D20D5984F02ACE1367B276ABDF0BD
:101BB0005E13C489632EF9B41A5780CD91DC0B46AD
:101BC000E8A5723FCA87501DB3FE29643875A2EF9D
:101BD000410CDB96420FD8953B76A1ECB0FD2A670D
:101BE000C984531EEBA6713C92DF0845195483CE7D
:101BF000602DFAB75D10C78A2469BEF3AFE235786D
:101C0000D69B4C01F4B96E238DC0175A064B9CD15C
:101C10007F32E5A8010202030405060708090A0B42
:101C20000C0D0E0F1010000000000000000001025B
:101C30000304060708090000000001020304000075
:101C400000000000000000000000000000003F4015
:101C500000000000000000003000400030004000A4
:101C6000000009000BC03D000BC03D00090018C07A
:101C700024407FE0224031800000180024C01B0077
:101C80000D803240018003801C4027401C800740AB
:101C90000040100060000000000000000000000094
:101CA000000000001F802040402000004020204015
:101CB0001F8000000000090006001F8006000900C8
:101CC0000000040004003F80040004000000001035
:101CD0000060000000000000000004000400040098
:101CE00004000400000000000040000000000000AC
:101CF0000000002001C006003800400000001F80E6
:101D00002040204020401F800000000010403FC0C5
:101D100000400000000018C021402240244018402C
:101D2000000010802040244024401B80000002005E
:101D30000D0011003FC0014000003C8024402440C1
:101D40002440238000001F8024402440344003802E
:101D500000003000200027C03800200000001B8059
:101D60002440244024401B8000001C0022C022404C
:101D700022401F800000000000000840000000001A
:101D800000000000000004600000000000000000EF
:101D900004000A00110020804040090009000900E9
:101DA00009000900000000004040208011000A00E6
:101DB00004001800200023402400180000001F80A9
:101DC0002040274029401F400000004007C0390044
:101DD0000F0001C0004020403FC0244024401B8031
:101DE00000001F8020402040204030800000204024
:101DF0003FC0204020401F80000020403FC02440C2
:101E00002E4030C0000020403FC024402E00300053
:101E100000000F001080204022403380020020404C
:101E20003FC0040004003FC02040204020403FC08D
:101E30002040204000000060202020203FC02000E3
:101E4000200020403FC024400B0030C020402040F4
:101E50003FC020400040004000C03FC03C0003C0E5
:101E60003C003FC0000020403FC00C4023003FC06A
:101E700020001F802040204020401F800000204084
:101E80003FC024402400180000001F802140214052
:101E900020E01FA0000020403FC02440260019C0C1
:101EA000004018C02440244022403180000030000F
:101EB00020403FC020403000000020003F80004014
:101EC00000403F80200020003E0001C00700380095
:101ED0002000380007C03C0007C038000000204048
:101EE00039C0060039C0204000002000384007C03B
:101EF000384020000000304021C02640384020C03B
:101F00000000000000007FE04020402000000000B2
:101F100070000C00038000400000000040204020C2
:101F20007FE00000000000002000400020000000D2
:101F30000000001000100010001000100010000041
:101F4000000040000000000000000000028005408A
:101F5000054003C0004020003FC00440044003800F
:101F60000000000003800440044006400000000020
:101F70000380044024403FC000400000038005402F
:101F8000054003400000000004401FC024402440DE
:101F90002000000002E005500550065004202040BB
:101FA0003FC00440040003C000400000044027C0BC
:101FB00000400000000000100010041027E00000A6
:101FC000000020403FC00140070004C00440204002
:101FD00020403FC000400040000007C0040007C090
:101FE000040003C00000044007C00440040003C014
:101FF00000400000038004400440038000000410FF
:1020000007F00450044003800000000003800440F7
:10201000045007F00010044007C002400400040010
:102020000000000006400540054004C0000000001C
:1020300004001F80044000400000040007800040AE
:10204000044007C000400400070004C001800600EF
:102050000400060001C0070001C0060000000440A3
:1020600006C0010006C0044000000410071004E090
:102070000180060004000000044005C00640044042
:1020800000000000000004007BE040200000000091
:1020900000000000FFF000000000000040207BE096
:1020A00004000000000040008000400020002000EC
:1020B00040000000000000000000000000000000E0
:1020C00000000000000000001FCC000C0000000019
:1020D00000000000080030006000080030006000D0
:1020E0000000022003FC1E20022003FC1E20022010
:1020F000000000000E1811043FFF10840C7800004F
:1021000000000F0010840F3800C007781884007892
:10211000000000780F8410C411240E9800E400849D
:1021200000080800680070000000000000000000C7
:10213000000000000000000007E018182004400222
:102140000000000040022004181807E00000000012
:1021500000000240024001800FF001800240024076
:1021600000000080008000800FF800800080008068
:1021700000000001000D000E000000000000000043
:10218000000000000080008000800080008000804F
:1021900000800000000C000C0000000000000000A7
:1021A0000000000000060018006001800600180012
:1021B0002000000007F0080810041004080807F0C9
:1021C00000000000080408041FFC000400040000D4
:1021D000000000000E0C10141024104411840E0C8A
:1021E000000000000C1810041104110412880C7077
:1021F0000000000000E00320042408241FFC002449
:10220000000000001F981084110411041088107041
:102210000000000007F008881104110418880070FD
:10222000000000001C00100010FC13001C00100037
:10223000000000000E3811441084108411440E3840
:10224000000000000700088C10441044088807F0C4
:102250000000000000000000030C030C0000000060
:102260000000000000000001010600000000000066
:102270000000000000800140022004100808100443
:102280000000022002200220022002200220022060
:102290000000000010040808041002200140008023
:1022A000000000000E001200100C106C10800F00D7
:1022B000000003E00C1813E4142417C4082807D006
:1022C00000000004003C03C41C40074000E4001C64
:1022D000000410041FFC1104110411040E88007086
:1022E000000003E00C1810041004100410081C1067
:1022F000000010041FFC100410041004080807F06C
:10230000000010041FFC1104110417C41004081865
:10231000000010041FFC1104110017C01000080079
:10232000000003E00C181004100410441C78004056
:10233000000010041FFC10840080008010841FFC2B
:1023400010040000100410041FFC1004100400000E
:10235000000000030001100110011FFE100010001A
:10236000000010041FFC110403801464181C1004E6
:10237000000010041FFC1004000400040004000C02
:10238000000010041FFC1F0000FC1F001FFC1004B5
:10239000000010041FFC0C04030000E010181FFCD8
:1023A000100007F00808100410041004080807F0D3
:1023B000000010041FFC10841080108010800F009B
:1023C000000007F0081810241024101C080A07F257
:1023D000000010041FFC1104110011C011300E0C7C
:1023E000000400000E1C11041084108410441C38DA
:1023F00000001800100010041FFC1004100018004A
:10240000000010001FF810040004000410041FF85E
:10241000100010001E0011E0001C007013801C0052
:1024200010001FC0103C00E01F0000E0103C1FC067
:1024300000001004180C163401C001C01634180C2A
:10244000100410001C00130400FC13041C001000F6
:1024500000000804101C1064108413041C041018DD
:1024600000000000000000007FFE40024002400229
:102470000000000030000C0003800060001C00031E
:10248000000000004002400240027FFE0000000009
:10249000000000000000200040004000400020003C
:1024A0000000000100010001000100010001000125
:1024B000000100004000400020000000000000007B
:1024C000000000000098012401440144014400FC84
:1024D000000410001FFC0088010401040088007043
:1024E000000000000070008801040104010400885D
:1024F00000000000007000880104010411081FFCA6
:102500000004000000F8014401440144014400C8F3
:1025100000000000010401040FFC1104110411006B
:102520001800000000D601290129012901C901066E
:10253000000010041FFC008401000100010400FCE5
:10254000000400000104190419FC00040004000048
:1025500000000000000300010101190119FE000044
:10256000000010041FFC0024004001B4010C010411
:1025700000000000100410041FFC00040004000010
:102580000000010401FC0104010001FC0104010040
:1025900000FC010401FC008401000100010400FCB6
:1025A0000004000000F8010401040104010400F823
:1025B0000000010101FF0085010401040088007092
:1025C000000000000070008801040104010501FF03
:1025D00000010104010401FC0084010401000180E8
:1025E0000000000000CC01240124012401240198F2
:1025F000000000000100010007F8010401040000D0
:102600000000010001F8000400040004010801FCBE
:102610000004010001800170000C001001600180C5
:10262000010001F0010C003001C00030010C01F08C
:10263000010000000104018C00740170018C010490
:102640000000010101810171000E0018016001808C
:10265000010000000184010C013401440184010CDB
:102660000000000000000000000001003EFC4002ED
:1026700040020000000000000000FFFF000000001A
:1026800000000000400240023EFC0100000000008B
:10269000000000006000800080004000400020003A
:1026A00020000000C42600080000002028000000D0
:1026B00028010008EC26000828000020E80B000094
:1026C00044010008000000000000000000000000BD
:1026D00000000000000000000000000001000000F9
:0C26E000100000000000000000127A0052
:04000005080000ED02
:00000001FF
